:10000000B3C100000C94FF420C9430430C94614344
:100010000C9492430C94C3430C94F4430C942544E5
:100020000C945644CBC100000C941A4D0C94844D92
:10003000C5C10000C3C10000C1C10000BFC10000B4
:10004000BDC10000BBC10000B9C10000B7C10000C4
:10005000B5C10000B3C10000B1C100000C94794CDF
:10006000ADC100000C94F03F0C941B400C944C402C
:10007000A5C10000A3C10000A1C100009FC10000F4
:100080009DC100009BC1000099C1000097C1000004
:1000900095C1000093C100009C02A1028E02A10242
:1000A00090029202A1029402A1029602A102980279
:1000B0009A029217EB17BF17B0170E180E18881771
:1000C0000E1888170E188817881788170E188817A3
:1000D00088178322A722CB22EF22132337235B2307
:1000E0007F23A323C7238322A722CB22EF2213231C
:1000F00037235B237F23A323C7238322A722CB227B
:10010000EF22132337235B237F23A323C7238322D9
:10011000A722CB22EF22132337235B237F23A323A2
:10012000C723EB2305241E242A24362442246524D5
:100130004E246524652465246524652453246524A0
:100140006524652465246524652465245824582481
:10015000582458245824582458242D5031504550A0
:100160001D511D5150501D515A501D516E508250FD
:1001700094501D51A650B85007634236B79BD8A77C
:100180001A39685618AEBAAB558C1D3CB7CC5763BC
:10019000BD6DEDFD753EF6177231BF000000803F6A
:1001A00008000000BE922449123EABAAAA2ABECD86
:1001B000CCCC4C3E00000080BEABAAAAAA3E0000F8
:1001C0000000BF000000803F0000000000084178F0
:1001D000D3BB4387D1133D190E3CC3BD4282AD2B27
:1001E0003E68EC8276BED98FE1A93E4C80EFFFBE1F
:1001F00001C4FF7F3F0000000000FCF3CF3F012956
:100200000229042908291029202940298029012CA4
:10021000022C012602260426082610262026402627
:100220008026402C802C0123022304230823102342
:1002300020234023802301200220042008201020B6
:10024000202040208020102C202C012F022F042F52
:10025000082F102F202F402F802F7EFE7EFD7EFB4B
:100260007EF77EEF7EDF7EBF7E7F000100004203CF
:100270001200020000AE02730022010021032100DF
:100280002101000A030900030000AA020401030976
:100290000494021414034D006500670061002000FF
:1002A0004D0049004400490000000403090409020C
:1002B0007300020100C032090400000201030000C3
:1002C0000724010001410006240201010006240266
:1002D00002020009240301030102010009240302B0
:1002E0000401010100090504024000000000052589
:1002F00001010109058302400000000005250101FC
:10030000030904010002030000000921110100019A
:100310002221000705810340000107050203200098
:100320000206C9FF0904A15C7508150026FF0095A7
:10033000400975810295200976910295040976B1EC
:1003400002C01201000200000040C01685047202C3
:100350000001000101C13601C0260181360180364D
:1003600015186B40C651A81811241FBECFEFD0E25C
:10037000DEBFCDBF14E0A0E0B1E0E8E6FFEA00E0B8
:100380000BBF02C007900D92A63AB107D9F729E139
:10039000A6EAB4E001C01D92A337B207E1F711E06D
:1003A000C3EBD1E004C02197FE010E946552C03B1F
:1003B000D107C9F70E94D4480C94A85721CECF93F7
:1003C000DF93EC0184E2888380E099E0ADE3B0E064
:1003D00089839A83AB83BC8380910B0190910C013C
:1003E000A0910D01B0910E018D839E83AF83B887DC
:1003F00080910F0190911001A091110189879A8736
:10040000AB871C861D861E861F86188A198A1A8A43
:100410001B8A86E0E2E1F1E0DE01549601900D9244
:100420008A95E1F7FE017A9689E0DF011D928A95AF
:10043000E9F71BA21CA21DA28FEF80BB11BA888115
:100440000E941D4BE881F0E00E945A4BDF91CF9152
:100450000895DC01EC91F0E00E945A4B61BBFC0175
:10046000808190E0FC010E94604B24E62150000056
:10047000E9F7FC010C945A4BCF93DF93EC016FE941
:10048000E8DF6FEBCE01E5DF6FEDCE01E2DF6FEF6E
:10049000CE01DF91CF91DDCFFC01E60FF11D408948
:1004A0002FE730E0241B310943E0359527954A9525
:1004B000E1F765816068622BCCCF0F931F93CF93D8
:1004C000DF938C01CFE7D0E0C41BD10983E0CC0FD0
:1004D000DD1F8A95E1F72196F801638560688C2F0E
:1004E0008F70682BC801B5DFBE0194E075956795E4
:1004F0009A95E1F7C801DF91CF911F910F91A9CF94
:10050000DC011F96EC914E2F50E0FA01FC97ED3084
:10051000F105B8F4E45BFF4F0C94655261E00DC047
:1005200062E00BC063E009C064E007C065E005C09D
:1005300066E003C067E001C060E0606E8ADF81E0D2
:10054000089580E00895CF93DF93EC018FE78B8BC4
:100550006F87CE01D5DF882329F063E0CE01DF91DC
:10056000CF919ACFDF91CF910895CF93DF93EC0194
:100570001B8A6F87C5DF882329F063E0CE01DF91F6
:10058000CF918ACFDF91CF9108950F931F93CF938F
:10059000DF936330C8F4EA018C01942F9F70906858
:1005A000F801E60FF11D8185692F682BC80151DF25
:1005B000BE0184E0759567958A95E1F7C801DF91E2
:1005C000CF911F910F9145CFDF91CF911F910F9147
:1005D00008954F925F926F927F928F929F92AF9207
:1005E000BF92FF920F931F93CF93DF93633008F076
:1005F00066C0F62E8C01C62FD0E0FC01EC0FFD1F6B
:10060000648570E065547109072E000C880B990B06
:100610000E94875320E030E040E451E40E94EC5215
:100620004B015C012A96CC0FDD1FC00FD11F6881E2
:1006300079817052072E000C880B990B0E9487530A
:1006400020E030E040E457E40E94EC529B01AC0112
:10065000C501B4010E9488529B01AC0160E070E0CA
:1006600080E090E40E9476542B013C01F801618106
:100670007281838194810E9487534B015C0120E049
:1006800030E04CED53E4C301B2010E94135420E06A
:1006900030E040E052E40E9413549B01AC01C501DC
:1006A000B4010E94EC520E9459536115F4E07F0797
:1006B00030F4AB016F2DC80168DF81E001C080E03C
:1006C000DF91CF911F910F91FF90BF90AF909F90BE
:1006D0008F907F906F905F904F900895633040F4BB
:1006E000FC01E60FF11DE60FF11D558B448B71CF18
:1006F0000895643008F4D0CE0895BF92CF92DF926F
:10070000EF92FF920F931F93CF93DF93FC01C0E012
:10071000D0E0328D311110C0B22EC42ED62E8C01F5
:100720007E01EE0CFF1CF701EC0FFD1FE00FF11F27
:10073000848D68130FC004C0348D36131BC0ECCFFA
:10074000838D882339F0F801EC0FFD1F108A6C2F80
:10075000C801CFDFF701EC0FFD1FE00FF11F81E0B3
:10076000828FD48E8091A604838FFC2E83E0C813E1
:1007700007C020C021963396C330D10551F61AC068
:10078000C00FD11FDC86BB2011F0C88A02C08FE7E2
:10079000888B6F2DC8011DDF882361F06F2DC80184
:1007A000DF91CF911F910F91FF90EF90DF90CF904D
:1007B000BF909FCFDF91CF911F910F91FF90EF904E
:1007C000DF90CF90BF900895FC0120E030E0448D91
:1007D000461314C0438D411111C0F901EE0FFF1FE4
:1007E000E20FF31FE80FF91F128EFC01E20FF31F57
:1007F000448564130AC0108A622F7BCF2F5F3F4F5E
:1008000033962330310519F708950895DDCFEF921F
:10081000FF920F931F93CF93DF938C01EC017C0128
:1008200089E0E80EF11C8B8D882339F08A8D8823AE
:1008300021F01B8E6C8DC801C7DF2396CE15DF0516
:1008400091F7DF91CF911F910F91FF90EF90089555
:10085000FC01099621E0338D311103C0328D311135
:10086000238F3396E817F907B1F70895FB0101903C
:100870000020E9F73197AF01461B570BDC01ED91E2
:10088000FC910280F381E02D0994F0CF362F242FC4
:10089000462F50E060E070E0211108C0DC01ED91CE
:1008A000FC910190F081E02D632F09942A3011F022
:1008B000213019F420E00C941441203111F40C94EF
:1008C0008D41223011F40C94C9410C94FD41FA0180
:1008D000AB01770F660B770BEA30F10511F40C943E
:1008E0008041E11108C0DC01ED91FC910190F081A3
:1008F000E02D642F0994EA3011F0E13019F420E082
:100900000C941441E03111F40C948D41E23011F457
:100910000C94C9412E2F0C94FD410F931F93CF933C
:10092000DF93EC01A3DF8C01CE010E94FA40800F1F
:10093000911FDF91CF911F910F910895CF93DF9376
:10094000FC018AE080838BE081838CE082838DE0F0
:1009500083838EE084838FE08583168287E087839C
:100960001086DF01A25ABE4F8AE2ED0119928A95E4
:10097000E9F79A961C928FEF80BB11BA87B988B1BC
:100980008C6388B9AF57B14086E9ED0119928A9519
:10099000E9F7E156FF4F87E8DF011D928A95E9F7F5
:1009A000DF91CF910895DC012C9130E0F9010E9494
:1009B000604B44E6542F51500000E9F7F9010E94C2
:1009C0005A4B41500000E9F7FC01399626E9DF0156
:1009D0001D922A95E9F7EA56FF4F27E8DF011D929D
:1009E0002A95E9F70895AF92BF92CF92DF92EF92E6
:1009F000FF920F931F93CF93DF93EC0168E171E0B7
:100A000083E699E18ADF7E0189E0E80EF11C00E0CF
:100A100010E021E2C22ED12CC80187709927892BC2
:100A2000D1F40115110521F083E699E10E94FA4005
:100A300064E371E083E699E128DF40E150E0B6012C
:100A400083E699E144DF6EEA72E083E699E11DDF17
:100A5000E8E0CE0ED11C5701F7018081803128F4E7
:100A600067E371E083E699E110DFFFEFEF1AFF0A19
:100A700040E150E0F501608183E699E107DF61E044
:100A800073E083E699E101DF0F5F1F4F0F3011051F
:100A900009F0C2CF83E699E10E94FA4083E699E12A
:100AA0000E94FA4069E371E083E699E136DF7E0156
:100AB000F8E1EF0EF11C00E010E090E3C92ED12C1C
:100AC000C80187709927892BB9F483E699E10E94C0
:100AD000FA4064E371E083E699E1D7DE40E150E05B
:100AE000B60183E699E1F3DE6EEA72E083E699E10E
:100AF000CCDE88E0C80ED11C5701F701808180311F
:100B000028F467E371E083E699E1BFDEFFEFEF1AB7
:100B1000FF0A40E150E0F501608183E699E1B6DE2D
:100B200061E073E083E699E1B0DE0F5F1F4F0738A5
:100B3000110509F0C5CF83E699E10E94FA4083E6EA
:100B400099E10E94FA4060E571E083E699E1E5DE13
:100B5000C156DF4F00E010E080E3E82EF12CC80121
:100B600087709927892BD1F40115110521F083E6AF
:100B700099E10E94FA4064E371E083E699E185DE41
:100B800040E150E0B70183E699E1A1DE6EEA72E050
:100B900083E699E17ADEF8E0EF0EF11C6E018881C0
:100BA000803128F467E371E083E699E16EDE2196F7
:100BB00040E150E0F601608183E699E167DE61E0A3
:100BC00073E083E699E161DE0F5F1F4F073811057F
:100BD00009F0C5CFDF91CF911F910F91FF90EF905A
:100BE000DF90CF90BF90AF900895DC01862F90E00A
:100BF0008A0F9B1FFC01222319F0E159FF4F01C00E
:100C0000789740831596EC911597F0E0022E0E949C
:100C1000574B1496EC911497F0E00E94604B11969C
:100C2000EC911197F0E00E94604B61BB12968C91A1
:100C3000129790E0FC010E94604B24E0322F31506B
:100C40000000E9F7FC010E945A4B11968C91119714
:100C500090E0FC010E945A4B1496EC911497F0E03E
:100C60000E945A4BFC010E94604B41BB12968C9132
:100C7000129790E0FC010E94604B21500000E9F7C0
:100C8000FC010E945A4B1196EC911197F0E00E94E2
:100C90005A4B1496EC91F0E00C94604BEF92FF925B
:100CA0000F931F93CF93DF937C01EB01842F22E0FE
:100CB00030E0C11598E0D90728F0D695C7952F5F89
:100CC0003F4FF7CF01E0833008F400E063E00E947B
:100CD000F451192F422F4770440F440F440F4D2BEE
:100CE00064EA690F202FC70180DF60EA610F202FBF
:100CF0004C2FC701DF91CF911F910F91FF90EF9083
:100D000074CFCF92DF92EF92FF92CF93DF93DC010B
:100D1000862F6CE00E94F45124E0929FF001112490
:100D2000EE50FE4FC080D180E280F3801896CC91C7
:100D30000C2E000CDD0BC80FD11DCC0FDD1FCC0F0E
:100D4000DD1FCA53DE4F28EB3EE145E85DEBC701EE
:100D5000B6010E941354A70196010E94885228816F
:100D600039814A815B810E941354DF91CF91FF90BA
:100D7000EF90DF90CF9008952F923F924F925F9225
:100D80006F927F928F929F92AF92BF92CF92DF929B
:100D9000EF92FF920F931F93CF93DF93CDB7DEB700
:100DA00027970FB6F894DEBF0FBECDBF9F838E830B
:100DB000B62E342E822EFC01E25AFE4F00E010E0E7
:100DC0008081811111C027E0209FC001219F900DDB
:100DD00011242E813F81820F931FFC01EE59FE4F9B
:100DE0002081B2121DC004C084818B113AC0EBCFA8
:100DF000FC01EF59FE4F8081882391F041E00330E0
:100E000011050CF440E0440F440FC80163E070E0AA
:100E10000E941452480F20E068E28E819F81E5DE37
:100E200087E0809F9001819F300D11248E819F81EA
:100E3000280F391FF901E25AFE4F81E08083349672
:100E4000B08231968B2D6CE00E94F45180833297F2
:100E50008091A704808333968091A8048083902E8C
:100E600047C00F5F1F4F37960630110509F0A8CF16
:100E7000EE81FF81EC59FE4F2E813F8122573E4F7C
:100E800099249A948081891508F4982E3796E21750
:100E9000F307C1F741E092E0991508F040E0440FF4
:100EA000440F892D63E00E94F451490F20E068E26D
:100EB0008E819F819ADEEE81FF81A7E09A9EE00DF0
:100EC000F11D1124DF01A25ABE4F81E08C931496CC
:100ED000BC9211968B2D6CE00E94F4518C9312976A
:100EE0008091A7048C93EC59FE4F8091A8048083D5
:100EF0008091A8048F5F90E066E070E00E94145239
:100F00008093A804892D63E00E94F451292EB1E05A
:100F1000BD8322E0291508F01D820091A9041091DB
:100F2000AA040115110559F46B2D8E819F81E9DE0C
:100F30000E945953492D8E819F81B0DE3BC06EEFD8
:100F40006B0D8E819F81DDDE6B017C0162E06B0D9C
:100F50008E819F81D6DE2B013C01C701B6010E9424
:100F600054535B016C01C801110FAA0BBB0B8983A1
:100F70009A83AB83BC83C301B2010E9454539F93F5
:100F80008F937F936F93E12C10E2F12E00E010E03D
:100F900020E030EE4FEF5FEF69817A818B819C8199
:100FA0000E948744492D8E819F8178DE0F900F909B
:100FB0000F900F90811023C080EF820D4D81440F60
:100FC000440F480F20E068E28E819F8127960FB67C
:100FD000F894DEBF0FBECDBFDF91CF911F910F916F
:100FE000FF90EF90DF90CF90BF90AF909F908F9049
:100FF0007F906F905F904F903F902F90F6CDEE8155
:10100000FF81E856FF4F80818770E82E1FE7131994
:10101000B12C92E0C92ED12C0CE484E4A82E9B2D97
:101020009170F92EA6E0AE1550F0B5E0EB1688F4FD
:1010300024E0E2121BC02F2D412F6A2D14C037E08F
:10104000E31214C02F2D412F64EF600F8E819F811A
:10105000CCDD2F2D412F6A2D8E819F81C6DD2F2D56
:10106000412F6CEF600F8E819F81BFDD2F2D412FAF
:10107000602F8E819F81B9DDA3940F5F0F3491F6AD
:1010800081E0C81AD108B3949B2D9170B92EC11478
:10109000D10409F491CFC0CFDC01FC01EF59FE4F20
:1010A00080E090E0218126131CC02081211119C00D
:1010B00027E0289FF001299FF00D1124EA0FFB1F64
:1010C000E25AFE4F108241E0833008F440E0440FC2
:1010D000440F63E00E94F451490F20E068E2CD0123
:1010E00084CD0196379686309105E1F60895EF920A
:1010F000FF920F931F93CF93DF938C01EC01C25AA1
:10110000DE4F7C0188E7E81A8EEFF80A8B8188238E
:1011100039F08881882321F01B826C81C801BCDFF3
:101120002796CE15DF0591F7DF91CF911F910F9193
:10113000FF90EF900895FC01E25AFE4F88579E4FB2
:1011400021E03381311103C030813111238337967F
:10115000E817F907B1F70895AF92BF92CF92DF92E7
:10116000EF92FF920F931F93CF93DF93EC0170E008
:1011700080E090E01F921F921F9227E02F93A12CF6
:10118000B12C65011FE7E12EF12C00E010E020E01A
:1011900030E0A9010E9487446E83FE01E857FE4FAC
:1011A0000F900F900F900F908081882359F1462F58
:1011B000486020E062E2CE0118DD1F81183078F02F
:1011C00067E671E083E699E1DF91CF911F910F917E
:1011D000FF90EF90DF90CF90BF90AF909ECB106FBD
:1011E00004EB20E0412F602FCE01FFDC0F5F073BB7
:1011F000C1F704EB21E0412F602FCE01F6DC0F5F39
:10120000073BC1F7DF91CF911F910F91FF90EF90B6
:10121000DF90CF90BF90AF9008954F925F926F9202
:101220007F929F92AF92BF92CF92DF92EF92FF9206
:101230000F931F93CF93DF9300D000D000D0CDB792
:10124000DEB79E838D83962E2A01FC0187E0689F7E
:10125000E00DF11D1124EE59FE4FB0806EEF6B0DC5
:101260008D819E814EDD6B017C0162E06B0D8D8175
:101270009E8147DD69837A838B839C835092AA0485
:101280004092A904C701B6010E9454535B016C014E
:10129000052C000C6608770869817A818B819C8116
:1012A0000E9454539F938F937F936F93E12C10E28E
:1012B000F12E00E010E020E030EE4FEF5FEFC301D1
:1012C000B2010E9487440F900F900F900F90492D0C
:1012D0008D819E8126960FB6F894DEBF0FBECDBFDE
:1012E000DF91CF911F910F91FF90EF90DF90CF9002
:1012F000BF90AF909F907F906F905F904F90CECCBB
:101300005F926F927F928F929F92AF92BF92CF9295
:10131000DF92EF92FF920F931F93CF93DF93CDB79E
:10132000DEB7E8970FB6F894DEBF0FBECDBF8C01D5
:101330006C0188E7C81A8EEFD80AF601908181E027
:10134000892780836AE971E083E699E19EDAF601F4
:101350008081811103C066E971E002C063E971E038
:1013600083E699E1DADA88E3F801EA5DFE4FDE010F
:10137000119601900D928A95E1F7F801ED5CFE4F10
:101380007080399660803296B0803996808032962F
:10139000E080399690803296F0803996A080F601F0
:1013A0008081882309F44AC0F8014681486020E022
:1013B00062E2C8011ADCF72DF0687F2E8B2D806861
:1013C000682E9E2D9068A92EEF2DE0685E2EE12CF0
:1013D00092E0892E912C80E6F82EFE2DF170BF2E22
:1013E0002F2F472D6F2DC80100DC64E06F0D2B2DD2
:1013F000462DC801FADB68E06F0D2B2D4A2DC80180
:10140000F4DB6CE06F0D2B2D452DC801EEDBF801F0
:101410004781406F64E56F0D2B2DC801E6DBF39427
:10142000F3E6FF12DACF81E0881A9108E3949E2D4B
:101430009170E92E8114910479F1CDCF20E040E044
:1014400062E2C801D2DBC801AEDA61E070E080E0A0
:1014500090E00E94B94C7E866F8AB98E8AA2ECA277
:101460009DA6FFA6A8AEEDB7FEB7F8970FB6F89405
:10147000FEBF0FBEEDBFADB7BEB7119688E3FE014C
:10148000319601900D928A95E1F7C80122D00FB6EE
:10149000F894DEBF0FBECDBFF6018081882311F026
:1014A000599A01C05998E8960FB6F894DEBF0FBE5E
:1014B000CDBFDF91CF911F910F91FF90EF90DF9003
:1014C000CF90BF90AF909F908F907F906F905F90E4
:1014D00008955F926F927F928F929F92AF92BF9288
:1014E000CF92DF92EF92FF920F931F93CF93DF93F0
:1014F000CDB7DEB78C01DC01AA5DBE4F88E3FE01EB
:10150000729601900D928A95E1F7F801E857FE4F27
:101510008080882011F0C801F3DE20E040E062E224
:10152000C80163DB20E040E067E2C8015EDB20E049
:1015300040E068E2C80159DB20E040E06BE2C8010E
:1015400054DBD12C912C792C770C770CF12C5BA0EF
:10155000ACA020E4A29EC0011124AE8CA82AB8A49D
:1015600020E8B29EC0011124BF8CB82A68A0CAA08E
:1015700020E1C29EC0011124C9A0C82A8EA120E189
:10158000829FC00111244DA1482B60E36F0D8D2D6A
:101590008170E82E282FC80128DB60E46F0D2E2D06
:1015A000452DC80122DB60E56F0D2E2D4A2DC801A7
:1015B0001CDB60E66F0D2E2D4B2DC80116DB60E79E
:1015C0006F0D2E2D462DC80110DB60E86F0D2E2DFE
:1015D0004C2DC8010ADB60E96F0D2E2D40E0C801DB
:1015E00004DB5EA4AFA420E4A29EC0011124A9A440
:1015F000A82ABBA820E8B29EC0011124BAA4B82A28
:101600006BA4CDA420E1C29EC0011124CCA4C82AA1
:1016100089A920E1829FC001112448A9482B64E3D5
:101620006F0D2E2DC801E1DA64E46F0D2E2D452DCE
:10163000C801DBDA64E56F0D2E2D4A2DC801D5DA1D
:1016400064E66F0D2E2D4B2DC801CFDA64E76F0DC8
:101650002E2D462DC801C9DA64E86F0D2E2D4C2DB4
:10166000C801C3DA64E96F0D2E2D40E0C801BDDA70
:1016700059ACAAAC20E4A29EC0011124ACA8A82AAF
:10168000BEAC20E8B29EC0011124BDA8B82A6EA845
:10169000C8AC20E1C29EC0011124CFA8C82A8CADDD
:1016A00020E1829FC00111244BAD482B68E36F0DF0
:1016B0002E2DC8019ADA68E46F0D2E2D452DC80134
:1016C00094DA68E56F0D2E2D4A2DC8018EDA68E692
:1016D0006F0D2E2D4B2DC80188DA68E76F0D2E2D6A
:1016E000462DC80182DA68E86F0D2E2D4C2DC801F9
:1016F0007CDA68E96F0D2E2D40E0C80176DA259678
:101700005FAC25972696AFAC269720E4A29EC00139
:101710001124AFACA82A2A96BFAC2A9720E8B29E23
:10172000C00111242196BFAC2197B82A22966FAC34
:1017300022972496CFAC249720E1C29EC0011124A9
:101740002396CFAC2397C82A28968FAD289720E1FF
:10175000829FC001112427964FAD2797482B6CE339
:101760006F0D2E2DC80141DA6CE46F0D2E2D452D25
:10177000C8013BDA6CE56F0D2E2D4A2DC80135DA14
:101780006CE66F0D2E2D4B2DC8012FDA6CE76F0D17
:101790002E2D462DC80129DA6CE86F0D2E2D4C2D0B
:1017A000C80123DA6CE96F0D2E2D40E0C8011DDA67
:1017B000888D28E0829FC0011124498D482B60EB61
:1017C0006F0D2E2DC80111DA64EB6F0D2E2D40EC3C
:1017D000C8010BDA472D4F0D20E068E2C80105DA99
:1017E000F39483E0F812B3CE9394D3942D2D21700B
:1017F000D22E82E09812A7CE882089F0C801DF910E
:10180000CF911F910F91FF90EF90DF90CF90BF90FD
:10181000AF909F908F907F906F905F9071CDDF9190
:10182000CF911F910F91FF90EF90DF90CF90BF90DD
:10183000AF909F908F907F906F905F900895FC0184
:1018400060870895FC0180850895CF93DF93FC01A4
:1018500020852530A1F0EC012F5F208760EA71E040
:1018600083E699E112D84885042E000C550B660BCF
:10187000770B83E699E1DF91CF910C948041DF9162
:10188000CF910895CF93DF93FC0120852B3FA9F0E2
:10189000EC012150208762EB71E083E699E10E9420
:1018A00045044885042E000C550B660B770B83E628
:1018B00099E1DF91CF910C948041DF91CF91089510
:1018C000FC01862F342F422F21E0633008F420E002
:1018D000330F330F305C63E00E94F451632F690FC4
:1018E000CF0183C9DC01562F322F203208F03FE1AF
:1018F00021E0533008F420E0440F440F405B852F73
:1019000063E00E94F451642F690F862F90E08A0FE4
:101910009B1FFC01533018F0E159FF4F01C078972D
:101920004081407E432BCD0160C9DC01562F322F10
:10193000203208F03FE121E0533008F420E0440F6A
:10194000440F405A852F63E00E94F451642F690FC1
:10195000862F90E08A0F9B1FFC01533018F0E1594D
:10196000FF4F01C0789740814078432BCD013DC99E
:10197000DC01562F322F203108F03FE021E05330B8
:1019800008F420E0440F440F4058852F63E00E9484
:10199000F451642F690F862F90E08A0F9B1FFC0182
:1019A000533018F0E159FF4F01C07897408150E162
:1019B000359FC00111244F70482BCD0116C9FC0181
:1019C000862F342F422F21E0633008F420E0330FBC
:1019D000330F305963E00E94F451632F690FCF0138
:1019E00004C9DC01562F322F203108F03FE021E0FE
:1019F000533008F420E0440F440F4058852F63E033
:101A00000E94F451642F690F862F90E08A0F9B1F6C
:101A1000FC01533018F0E159FF4F01C07897408125
:101A2000407F432BCD01E1C8DC01562F322F2830F7
:101A300008F037E021E0533008F420E0440F440F71
:101A4000405D852F63E00E94F451642F690F862F5B
:101A500090E08A0F9B1FFC01533018F0E159FF4FB3
:101A600001C07897408150E1359FC00111244F702B
:101A7000482BCD01BAC8DC01562F322F203108F097
:101A80003FE021E0533008F420E0440F440F405D74
:101A9000852F63E00E94F451642F690F862F90E038
:101AA0008A0F9B1FFC01533018F0E159FF4F01C012
:101AB000789740814077432BCD0197C8DC01562FA2
:101AC000322F243008F033E021E0533008F420E0D6
:101AD000440F440F405B852F63E00E94F451642F54
:101AE000690F862F90E08A0F9B1FFC01533018F07E
:101AF000E159FF4F01C07897408150E4359FC00104
:101B000011244F71482BCD0170C8DC01362F522FA4
:101B100021E0633008F420E0440F440F405A832F43
:101B200063E00E94F451642F690F862F90E08A0FC2
:101B30009B1FFC01333018F0E159FF4F01C078972B
:101B4000408150FB47F9CD0150C8FC014285477FD9
:101B5000F8E06F9FB0011124462B20E062E245C8F7
:101B6000FC014285487F462B20E062E23EC8DC0152
:101B7000362F483008F047E021E0333008F420E009
:101B8000832F63E00E94F45164EB690F862F90E08D
:101B90008A0F9B1FFC01333018F0E159FF4F01C041
:101BA00078978081887F482BCD011FC8DC01362FB4
:101BB000483008F047E021E0333008F420E0832F7C
:101BC00063E00E94F45164EB690F862F90E08A0F66
:101BD0009B1FFC01333018F0E159FF4F01C078978B
:101BE000308158E0459FC0011124432F477C482B8A
:101BF000406CCD010C94F505DC01362F483008F01F
:101C000047E021E0333008F420E0832F63E00E94B6
:101C1000F45160EB690F862F90E08A0F9B1FFC0147
:101C2000333018F0E159FF4F01C078978081887FE9
:101C3000482BCD010C94F505DC01362F483008F017
:101C400047E021E0333008F420E0832F63E00E9476
:101C5000F45160EB690F862F90E08A0F9B1FFC0107
:101C6000333018F0E159FF4F01C07897308158E0C8
:101C7000459FC0011124432F477C482BCD010C9474
:101C8000F50580E090E00895FC01808583FF0DC09C
:101C900080A191A1A2A1B3A1408D518D628D738DC0
:101CA000841B950BA60BB70B03C080E090E0DC0112
:101CB000811520E89207A105B10520F08FEF9FE77D
:101CC000A0E0B0E0089580917A098F5F63E00E9400
:101CD000F45190937A0981E08093620908950896FF
:101CE0000C94352F08960C94052ECF93DF931F92FA
:101CF000CDB7DEB741E050E0BE016F5F7F4F089681
:101D00000E94D628019719F4898190E002C08FEFD4
:101D10009FEF0F90DF91CF91089508960C94452E78
:101D20000F931F93CF938B01982F9D7F913011F0CC
:101D30008A3051F4C0E0A8016C2F82EB97E06DDA95
:101D4000CF5FC630C1F70EC0823011F0843051F43D
:101D5000C0E0A8016C2F8BE399E00E946E03CF5F77
:101D6000C330B9F7CF911F910F910895CF93DF93AF
:101D700091E090936109982F9D7F913009F045C0C3
:101D80009091B104911105C0909102019F3F09F417
:101D900053C0D42FC62F833021F481E08093B00448
:101DA00029C08091B004882329F11092B004E091F9
:101DB000541888E38E9FF0011124ED5AF54F2DB78A
:101DC0003EB7285331090FB6F8943EBF0FBE2DBF62
:101DD000ADB7BEB7119601900D928A95E1F782EBEF
:101DE00097E077DB8DB79EB7C8960FB6F8949EBF85
:101DF0000FBE8DBF63E06C0F2091B0044D2F82EBBE
:101E000097E0DF91CF910C94BC06823011F08430C2
:101E100051F421E0843009F020E08BE399E0DF9178
:101E2000CF910C947D03853039F421E08BE399E068
:101E3000DF91CF910C94A302DF91CF910895982F59
:101E40009D7F913021F46D5F82EB97E025C9823050
:101E500011F0843021F48BE399E00C940604853072
:101E600021F48BE399E00C94B50208956D3F710560
:101E700038F46A3F710550F4683F710589F406C073
:101E80009B012E5F31092230310550F4DC018D9128
:101E90009C91DC01ED91FC910190F081E02D099481
:101EA0000895CF92DF92EF92FF920F931F93CF93FB
:101EB000DF93EB017B0120E5E20EF11C8B016C014D
:101EC000C61AD70AC601800F911F0E949257F801C7
:101ED00081938F01EE15FF05A9F7CE01DF91CF9118
:101EE0001F910F91FF90EF90DF90CF900895CF93C7
:101EF000DF931F92CDB7DEB7698341E050E0BE01AA
:101F00006F5F7F4F08960E94352F0F90DF91CF9122
:101F10000895462F50E060E070E020E00C941441FA
:101F20000F931F93CF93DF93EC01AB01770F660BF9
:101F3000770B0E9480418C01CE010E94FA40800FF5
:101F4000911FDF91CF911F910F91089540E050E0D4
:101F5000BA010C94052BFC0110861186128288EEC2
:101F600093E0A0E0B0E083839483A583B6831782D7
:101F700082E294E0918380830895DC01ED91FD91EC
:101F80008081ED91FD919081ED91FD916C91637057
:101F90008E2309F064609F2309F06860EAEDFFE09A
:101FA000E60FF11D659565956D936D917D918D9110
:101FB0009D91099423C01AC012C016C010C01EC043
:101FC00009C014C013C006C019C009C00DC007C0A5
:101FD0000DC014C062507040804090400BC06150F2
:101FE00070408040904006C06E5F01C06F5F7F4FC1
:101FF0008F4F9F4F9E938E937E936E930895809103
:10200000671890916818B9CF8091651890916618FB
:10201000B4CF8091631890916418AFCF809161180C
:1020200090916218AACF80915F1890916018A5CF07
:1020300080915D1890915E18A0CF80915B1890916F
:102040005C189BCF8091591890915A1896CF833085
:10205000D9F160F4813031F170F570935A186093C2
:10206000591841E062E270E180E048C08331F1F14B
:1020700060F4823109F046C0709366186093651869
:1020800041E064E070E186E039C0843231F18532AC
:10209000C9F5709364186093631841E069E070E1DA
:1020A00085E02CC070935C1860935B1841E06DE193
:1020B00070E181E023C070935E1860935D1841E089
:1020C00068E170E182E01AC07093601860935F1855
:1020D00041E063E170E183E011C0709362186093A6
:1020E000611841E06EE070E184E008C07093681808
:1020F0006093671841E06FEF7FE087E00E94C04285
:1021000081E0089580E008950F931F93CF93DF93AC
:10211000EC01062F142F862F0E942E4B812F0E9438
:102120002E4B802F90E0880F991FFC01E150FE4F4D
:10213000E491AE2FB0E0B983A883FC01E250FE4FDA
:1021400024912C83812F90E0880F991FFC01E1508E
:10215000FE4FE4914E2F50E05B834A83FC01E25036
:10216000FE4F84918D831F82188619861A86E0E4BB
:10217000FFE13197F1F7EC91E22391E009F490E06F
:10218000DA01EC91E82309F092609E83BE01802F72
:102190005EDF8B87BE01812F5ADF9B85890F8B877E
:1021A000DF91CF911F910F910895AF92BF92DF926F
:1021B000EF92FF920F931F93CF93DF93CDB7DEB7CC
:1021C000C055D1090FB6F894DEBF0FBECDBFCC56B7
:1021D000DF4FE880F980C459D04088E0E816F10468
:1021E00008F03FC088E3FE01E45AFF4FDE0111967C
:1021F00001900D928A95E1F7E9AE44E150E06AEB77
:1022000074E0CE01CA960E943D572F961FAE2F97BD
:102210008091541860968FAF609782EB97E012DB45
:1022200061968FAF619780E58E9D80018F9D100D27
:102230001124FE0131967F015801F0E5AF0EB11C6B
:10224000F701D1907F01C8010E949257D81621F062
:102250006D2DC8010E949A570F5F1F4F0A151B056D
:1022600079F7C05BDF4F0FB6F894DEBF0FBECDBF6E
:10227000DF91CF911F910F91FF90EF90DF90BF9072
:10228000AF900895EF92FF920F931F93CF93DF9338
:10229000C8E4D4E000E514E07E01D701ED917D01B2
:1022A000F0E00E945A4B64E670E080E090E00E940B
:1022B000B94CB0E5EB16B4E0FB0679F7E991F0E034
:1022C0000E94604B64E670E080E090E00E94B94CB0
:1022D0000C171D0799F7DF91CF911F910F91FF9078
:1022E000EF90089583E699E00E940C3E83E699E022
:1022F0000E94133E62E272E083E699E00E94450488
:1023000041E060E083E699E00E941A3E6AE272E0F2
:1023100083E699E00E944504A8E4B4E080E090E000
:10232000EC91F0E080FD03C00E945A4B02C00E9475
:10233000604B019611968830910591F7FFCFEF928F
:10234000FF920F931F93CF93DF93CDB7DEB7AF9775
:102350000FB6F894DEBF0FBECDBFCE010196FBDDF8
:102360000AEB14E080E8F82E41E069E877E0CE015E
:1023700009960E94942C882309F44FC0F8018F2DF0
:1023800011928A95E9F740E850E06AEB74E0CE01DB
:1023900009960E9459318091BA048E32D1F46AEBC9
:1023A00074E089E897E00E94152F811112C0CE01D8
:1023B00009960E94612D81110CC068E372E083E6EA
:1023C00099E10E9445046AEB74E083E699E10E947A
:1023D0008D046AEB74E0CE0189960E942E4563E578
:1023E00072E0CE0189960E943446E82ECE0189968D
:1023F0000E94C844EE2061F0CE0109960E94612D32
:10240000811106C06DE672E083E699E10E948D04B9
:10241000CE0109960E94952EA7CFCE0109960E9463
:10242000952E89E897E092DDAF960FB6F894DEBF5F
:102430000FBECDBFDF91CF911F910F91FF90EF9015
:10244000089582EB97E00E94D3048BE399E00E9409
:102450003C02E091541888E3E89FF0011124ED5A02
:10246000F54F8DB79EB7C8970FB6F8949EBF0FBEB5
:102470008DBFADB7BEB7119688E301900D928A95D6
:10248000E1F782EB97E025D88DB79EB7C8960FB6D7
:10249000F8949EBF0FBE8DBF62E872E083E699E1BB
:1024A0000C948D048F929F92AF92BF92CF92DF9245
:1024B000EF92FF920F931F93CF93DF93CDB7DEB7C9
:1024C000C559D1090FB6F894DEBF0FBECDBF10E0DD
:1024D0007E0123E4E20EF11C20E030E04CE350E00A
:1024E000B70182E495E00E94562A892B09F403C2C1
:1024F000B701CE0183579F4F0E942E4563E972E0DA
:10250000CE0181589F4F0E942E45BE0161587F4FDA
:10251000CE0183579F4F0E947946082FCE018158E4
:102520009F4F0E94C8440111D8C1612FCE018A5724
:102530009F4F0E944C4566E972E0CE0181589F4F43
:102540000E942E45BE016A577F4FCE0181589F4F92
:102550000E94D44569E972E00E94E145BC01CE01C8
:1025600083579F4F0E947946082FCE0181589F4F75
:102570000E94C844CE018A579F4F0E94C84400233E
:1025800021F01093531801E0AFC1612FCE018A579B
:102590009F4F0E944C4566E972E0CE0181589F4FE3
:1025A0000E942E45BE016A577F4FCE0181589F4F32
:1025B0000E94D445BC01CE0183579F4F0E947946AB
:1025C000082FCE0181589F4F0E94C844CE018A57E0
:1025D0009F4F0E94C844002309F47DC1CE0101969B
:1025E0004C016C0120E030E04CE350E0B70182E4A4
:1025F00095E00E94562AB701CE0183579F4F0E9453
:10260000864562E073E0CE0181589F4F0E942E45BF
:102610006AE971E0CE018A579F4F0E942E45AE01B4
:1026200041585F4FBE016A577F4FCE0183579F4F7E
:102630000E944B47CE018A579F4F0E94C844CE014B
:1026400081589F4F0E94C84462E073E0CE018158D8
:102650009F4F0E942E4562EA72E0CE018A579F4F3B
:102660000E942E45AE0141585F4FBE016A577F4F11
:10267000CE0183579F4F0E944B47CE018A579F4FF1
:102680000E94C844CE0181589F4F0E94C84462E016
:1026900073E0CE0181589F4F0E942E4567EA72E099
:1026A000CE018A579F4F0E942E45AE0141585F4F81
:1026B000BE016A577F4FCE0183579F4F0E944B4701
:1026C000CE018A579F4F0E94C844CE0181589F4F28
:1026D0000E94C84462E073E0CE0181589F4F0E947F
:1026E0002E456CEA72E0CE018A579F4F0E942E451C
:1026F000AE0141585F4FBE016A577F4FCE018357ED
:102700009F4F0E944B47CE018A579F4F0E94C8445B
:10271000CE0181589F4F0E94C84462E073E0CE0111
:1027200081589F4F0E942E4561EB72E0CE018A577F
:102730009F4F0E942E45AE0141585F4FBE016A5720
:102740007F4FCE0183579F4F0E944B47CE018A5740
:102750009F4F0E94C844CE0181589F4F0E94C84499
:1027600062E073E0CE0181589F4F0E942E4566EBD8
:1027700072E0CE018A579F4F0E942E45AE0141580C
:102780005F4FBE016A577F4FCE0183579F4F0E9414
:102790004B47CE018A579F4F0E94C844CE018158B3
:1027A0009F4F0E94C84420E030E04CE350E0B70166
:1027B000CE0183579F4F0E9487464AE050E0BE01FA
:1027C0006C567F4FC7010E94DB55F6016083AA2437
:1027D000A394B12C4AE050E0BE016C567F4FCC561A
:1027E000DF4F88819981C459D0400E94DB55F601A2
:1027F000EA0DFB1D6083FFEFAF1ABF0A2BE0A216A4
:10280000B10441F78BE0C80ED11CCE14DF0409F0EF
:10281000E9CEE8E31E9FC001112420E030E0F4017E
:1028200041914F01F901E80FF91FED5AF54F40832F
:102830002F5F3F4F2530310591F7FE013C968D5AB1
:10284000954F20E030E04191DC01A20FB31F1596B7
:102850004C932F5F3F4F27303105A9F7FE01779644
:1028600020E030E04191DC01A20FB31F1C964C9395
:102870002F5F3F4F2B303105A9F7FE01B29620E0C4
:1028800030E04191DC01A20FB31F57964C932F5FAC
:102890003F4F2B303105A9F7FE01BD9620E030E017
:1028A0004191DC01A20FB31F92964C932F5F3F4FD3
:1028B0002B303105A9F7FE01F89620E030E0419178
:1028C000DC01A20FB31F9D964C932F5F3F4F2B301F
:1028D0003105A9F71F5F1F3331F0CE0183579F4F9A
:1028E0000E94C844F9CD00E0CE0183579F4F0E945B
:1028F000C844011102C010935318111105C0109261
:10290000B1046BEB72E005C081E08093B1046BEC25
:1029100072E083E699E10E948D04CB56DF4F0FB63B
:10292000F894DEBF0FBECDBFDF91CF911F910F9105
:10293000FF90EF90DF90CF90BF90AF909F908F90DF
:102940000895EF92FF920F931F93CF93DF93CDB72C
:10295000DEB76AE971E083E699E10E944504CE01A1
:1029600009967C018E01025F1F4FF70161917F0183
:1029700083E699E1CEDA61E073E083E699E10E94B3
:102980004504E016F10689F783E699E10E94FA40D2
:1029900062EA72E083E699E10E9445047E01F5E176
:1029A000EF0EF11CF80161918F0183E699E1B1DA34
:1029B00061E073E083E699E10E9445040E151F056E
:1029C00089F783E699E10E94FA4067EA72E083E6BC
:1029D00099E10E9445048E01005E1F4FF70161914D
:1029E0007F0183E699E195DA61E073E083E699E19E
:1029F0000E944504E016F10689F783E699E10E94FA
:102A0000FA406CEA72E083E699E10E9445047E0197
:102A1000FBE2EF0EF11CF80161918F0183E699E171
:102A200078DA61E073E083E699E10E9445040E15CF
:102A30001F0589F783E699E10E94FA4061EB72E095
:102A400083E699E10E9445048E010A5C1F4FF7015D
:102A500061917F0183E699E15CDA61E073E083E6EE
:102A600099E10E9445040E151F0589F783E699E157
:102A70000E94FA4066EB72E083E699E10E94450409
:102A80007E01F1E4EF0EF11CF80161918F0183E604
:102A900099E13FDA61E073E083E699E10E94450441
:102AA000E016F10689F783E699E10E94FA40DF918A
:102AB000CF911F910F91FF90EF900895E3E0F0E028
:102AC0000E94604BE4E0F0E00E94604BE5E0F0E043
:102AD0000E94604BE6E0F0E00E94604BE7E0F0E02F
:102AE0000E94604BE8E1F0E00E94604BEBE1F0E017
:102AF0000E94604BE0910201E83038F4F0E0E85BBE
:102B0000FB4FE081F0E00C945A4B08950F931F9314
:102B1000CF93DF938830E8F404E010E0E82FF0E092
:102B2000E85BFB4FC081D0E0FE010E945A4B64E697
:102B300070E080E090E00E94B94CFE010E94604B82
:102B400064E670E080E090E00E94B94C0150110909
:102B500059F7DF91CF911F910F910895CF938091F5
:102B60005418882329F01092541881E08093620948
:102B700063EE72E08AEB94E00E941F57892BB9F054
:102B800080E8EAEBF4E0DF011D928A95E9F763EE55
:102B900072E0CF010E942857C1E0C09353186AEB3E
:102BA00074E083E699E10E948D04C0936209CF919D
:102BB0000895DC01D6968D919C91D797813F910520
:102BC00009F4B5C038F5803B910509F45FC078F48D
:102BD00080399105E9F1803A910509F474C0803893
:102BE000910509F0D1C0ED91FC91119770C0803D25
:102BF000910509F478C028F4803C910509F478C067
:102C00000895803E910509F446C0803F910509F47E
:102C10007CC008958A3F910529F170F4833F9105A6
:102C200009F49DC008F488C0863F910509F4A0C04E
:102C3000883F910591F008958C3F9105E9F0B8F037
:102C40008E3F9105F1F08F3F910509F496C00895EC
:102C50001296ED91FC9113973AC05896ED91FC9124
:102C600059978FC05A96ED91FC915B978AC05C96FC
:102C7000ED91FC915D9785C05E96ED91FC915F971B
:102C800080C09096ED91FC9191977BC01696ED9146
:102C9000FC9117971CC01C96ED91FC911D973097E5
:102CA00009F472C0D9966C91D9976F7720E8629F2A
:102CB000B0011124D8968C91D8978F77682B7052D9
:102CC000D5968C9109941496ED91FC9115973097B7
:102CD00009F45AC0D9964C91D997D8966C91D89747
:102CE000D5968C9109941A96ED91FC911B9704C08E
:102CF0001896ED91FC911997309709F445C0D89634
:102D00006C91D897D5968C9109941E96ED91FC9173
:102D10001F973097C9F1D8966D917C91D9976138FA
:102D2000710510F060E870E0CD01CA9609945096E4
:102D3000ED91FC91519717C05296ED91FC915397EC
:102D4000309711F1D9968C91D9978F7720E8829F8F
:102D5000C0011124D8962C912F77822B0994549678
:102D6000ED91FC915597309779F0D8968C91099414
:102D70005696ED91FC91579704C09296ED91FC9177
:102D80009397309709F0099408959C018F7C8038BF
:102D9000910561F0203D310549F081E0203E31058B
:102DA00039F0203C310521F080E0089581E008955C
:102DB000089587FF0DC09CE0980F923048F0982F3F
:102DC0009B7F993F29F0803F08F4807F90E0089531
:102DD00080E090E00895DF92EF92FF920F931F93AF
:102DE000CF93DF930150003108F04CC0603871057B
:102DF0000CF448C0613E7105ACF5122FD42EEB01E6
:102E00007C01DC0194968D919C919597602BDC015F
:102E1000ED91FC910190F081E02D0995F70184A1DD
:102E200095A16D2D6F77DC01ED91FC910190F08102
:102E3000E02D0995BE016F7E603C710519F1F70127
:102E400084A195A1612F6F77DC01ED91FC91019038
:102E5000F081E02DDF91CF911F910F91FF90EF90C6
:102E6000DF9009949B01285F31092830310550F427
:102E70008496DF91CF911F910F91FF90EF90DF909B
:102E80000C94360FDF91CF911F910F91FF90EF902F
:102E9000DF900895EF92FF920F931F93CF93DF93EC
:102EA000EC019CA9292F217090FFB8C0892F8E7F3B
:102EB00009F4B4C0362F6EA97FA9AB01405851095F
:102EC00041365105D0F40DA9031719F021E0311155
:102ED00020E09695923031F0933041F0913009F036
:102EE0009DC006C0222309F499C002C0211196C0DA
:102EF00029AD48ADCE016FDF91C0FB01E05FF10964
:102F0000E031F10508F08AC0E75AFF4F0C94655292
:102F1000CE018496DF91CF911F910F91FF90EF909A
:102F20000C94360F8E01065C1F4F780188AD99AD69
:102F30008138910510F080E890E0080F191F0E15F8
:102F40001F0509F46BC08CA19DA1D7016D917D0176
:102F5000DC01ED91FC910190F081E02D0995EFCF1E
:102F600018AD8CA19DA1DC01ED91FC910190F08147
:102F7000E02D63EF09958CA19DA1612F24C009ADBF
:102F8000B0E80B9F8001112488AD082B8CA19DA176
:102F9000DC01ED91FC910190F081E02D62EF09954B
:102FA0008CA19DA1602F6F77DC01ED91FC910190C8
:102FB000F081E02D09958CA19DA1000F012F001F2C
:102FC000110B1195602F6F77DC01ED91FC91019051
:102FD000F081E02D1CC088AD8770B0E18B9FC001EF
:102FE000112419AD1F70182B8CA19DA1DC01ED914E
:102FF000FC910190F081E02D61EF09958CA19DA1DC
:10300000DC01ED91FC910190F081E02D612FDF91C9
:10301000CF911F910F91FF90EF900994DF91CF9185
:103020001F910F91FF90EF9008958F92AF92CF92E2
:10303000EF920F93CF93DF93E4E9F9E089E698E10B
:1030400095A384A316A217A210A615A614A617A6C8
:1030500016A68FEF9FEF91AB80AB93AB82AB83E073
:103060008093C80915AA17AA16AA10AE11AE10921D
:103070004E0A80E8AEECB9E0ED0119928A95E9F7C5
:103080001182108213821282158214821782168294
:103090001186108613861286158614861786168664
:1030A000118A108A138A128A158A148A178A168A34
:1030B000118E108E138E128E158E148E178E168E04
:1030C00011A210A213A212A243E162E188E899E0E2
:1030D0001BD860E070E08BE799E00E942E458DE2FE
:1030E0008F938CE28F938BE2882E9AE2A92E29E2AD
:1030F000C22E38E2E32E07E226E24AE161E183E6EE
:1031000099E00E94C73E8BE399E00E94DF0182EBC9
:1031100097E00E949E041092670510928907109212
:103120008A0784E68093A9071092AE0780E5809312
:10313000AF071092B0070F900F908AE395E0DF91F0
:10314000CF910F91EF90CF90AF908F900C94AB0FE9
:103150008BE799E00C94C8441F93CF93DF93CDB7CE
:10316000DEB7C755D1090FB6F894DEBF0FBECDBF8D
:10317000182F83E699E00E940C3E83E699E00E94B6
:10318000133E10937A09412F60E083E699E00E9494
:103190001A3E61E073E083E699E00E9445044091A5
:1031A0007A094230B8F460E083E699E00E941A3E62
:1031B00061E073E083E699E00E94450440917A095A
:1031C00060E083E699E00E941A3E60E083E699E0C1
:1031D0000E94193F40E061E083E699E00E941A3EB8
:1031E0006AEB74E0CE018F5A9F4F0E942E4563E137
:1031F00070E0CE018F5A9F4F0E943348BC01CE0130
:103200008F5A9F4F0E9473456AEB74E08BE799E0F9
:103210000E948645BE016F5A7F4F83E699E00E9467
:10322000A44041E061E083E699E00E941A3E80916B
:10323000B104882311F167EE72E083E699E00E9401
:1032400045046091541883E699E00E94890F64E96F
:1032500072E083E699E00E9445044091531850E0E3
:1032600041505109052E000C660B770B83E699E05F
:103270000E94804160E073E002C06FEE72E083E67E
:1032800099E00E94450441E06FE083E699E00E94E6
:103290001A3E69EF72E083E699E00E94450482EBF2
:1032A00097E00E94220C182F87FD06C06DEF72E098
:1032B00083E699E00E944504412F110F550B660BE0
:1032C000770B83E699E00E94804180917A098230F1
:1032D000B9F441E06EE083E699E00E941A3E61E0B5
:1032E00073E083E699E00E94450441E06EE083E6E6
:1032F00099E00E941A3E60E083E699E00E94193F3F
:1033000080910201883008F042C09FEF99AF60962B
:103310001FAE609761961FAE6197BE016F5F7F4FD2
:1033200020E5829FC00111240E94510F42E060E01D
:1033300083E699E00E941A3EBE01665C7F4F83E6F9
:1033400099E00E94450443E060E083E699E00E9432
:103350001A3E67EE72E083E699E00E9445046096AB
:103360006FAD609783E699E00E94890F6FEF72E07E
:1033700083E699E00E94450462E083E699E00E94BA
:10338000193F6091020183E699E00E94890FCE0106
:103390008F5A9F4F0E94C844C95ADF4F0FB6F89406
:1033A000DEBF0FBECDBFDF91CF911F910895CF92A9
:1033B000DF92EF92FF921F93CF93DF93CDB7DEB7EB
:1033C000C055D1090FB6F894DEBF0FBECDBF182F80
:1033D000CE0189960E94AB0F80E8EAEBF4E0DF01B2
:1033E0001D928A95E9F7113009F45FC020F0123080
:1033F00009F490C010C1CE0101960E94AB0F41E0CC
:1034000069E877E0CE0109960E94942C8823C1F0E8
:10341000CE0109960E94952E8091B6049091B70432
:10342000A091B804B091B9040196A11DB11D80937B
:10343000B6049093B704A093B804B093B904DFCF57
:10344000CE0109960E94952E89E897E00E94A60F6A
:1034500080914205882321F082E495E00E94952E18
:1034600041E069E877E082E495E00E94942C809145
:103470004205811103C063E073E003C140E850E0FE
:103480006AEB74E082E495E00E9459316AEB74E0E3
:1034900083E699E10E948D041092B2041092B30465
:1034A0001092B4041092B50411C18091B2049091AD
:1034B000B304A091B404B091B5040196A11DB11D4F
:1034C0004091B6045091B7046091B8047091B9046A
:1034D00084179507A607B70768F089E897E00E9468
:1034E000A60F1092B2041092B3041092B40410927A
:1034F000B50408C08093B2049093B304A093B404BD
:10350000B093B50441E069E877E0CE01C1960E942E
:10351000942C3CC08091B2049091B304A091B40467
:10352000B091B5040097A105B105E9F10197A10992
:10353000B1098093B2049093B304A093B404B09300
:10354000B50489E897E00E94A60FC12CD12C760122
:103550008091B2049091B304A091B404B091B504E9
:103560008C159D05AE05BF0588F0CE01C1960E9461
:10357000952E41E069E877E0CE01C1960E94942C37
:10358000BFEFCB1ADB0AEB0AFB0AE2CF40E850E0C0
:103590006AEB74E0CE01C1960E945931CE01C1960A
:1035A0000E94952E38C08091B6049091B704A091E6
:1035B000B804B091B9040197A109B1098093B2048C
:1035C0009093B304A093B404B093B50489E897E052
:1035D0000E94A60FC12CD12C76018091B20490914B
:1035E000B304A091B404B091B5048C159D05AE054B
:1035F000BF0560F2CE01C1960E94952E41E069E8B8
:1036000077E0CE01C1960E94942C8FEFC81AD80A99
:10361000E80AF80AE2CF80914205882321F082E48B
:1036200095E00E94952ECE0101960E94AB0F21E0FD
:103630004AEB54E069E877E0CE0109960E949D2E9E
:1036400080E2FE013996A2E4B5E001900D928A95E0
:10365000E1F78B8180933C058C819D81AE81BF8198
:1036600080933D0590933E05A0933F05B0934005A0
:1036700088858093410580914205811108C065E1EC
:1036800073E083E699E10E948D040E9472110E940A
:103690005212ADB7BEB7D8970FB6F894BEBF0FBEE3
:1036A000ADBF119688E3E3E5FAE001900D928A95AB
:1036B000E1F782EB97E00E94690A109254180FB666
:1036C000F894DEBF0FBECDBF80E046DD81E0C05B79
:1036D000DF4F0FB6F894DEBF0FBECDBFDF91CF91A5
:1036E0001F91FF90EF90DF90CF900895EF92FF929F
:1036F0000F931F93CF93259A3E9A90E49093800066
:1037000089E0809381001092890010928800909344
:1037100090008093910081E090E0909399008093D5
:10372000980040E052EC61E070E083E699E10E948D
:10373000265148E354E060E083E699E00E94F23EBF
:1037400040E454E061E083E699E00E94F23E40E309
:1037500054E062E083E699E00E94F23E20E044E01B
:1037600064E183E699E00E94333E69E273E083E618
:1037700099E00E94450441E060E083E699E00E9400
:103780001A3E69E373E083E699E00E94450442E053
:1037900060E083E699E00E941A3E69E473E083E604
:1037A00099E00E94450443E060E083E699E00E94CE
:1037B0001A3E6BE573E083E699E00E9445046AE6F1
:1037C00073E083E699E00E9445044FEF60E470E007
:1037D0008091B8099091B9090E94B53F1092BA0939
:1037E0001092BC091092BB091092C3091092C20931
:1037F0001092C1091092C0098FEF9FEF9093C509F5
:103800008093C4099093C7098093C60910924E0A09
:103810001092CB091092CA091092C9091092CC09D2
:103820001092CD098091C809817082608160809377
:10383000C80964E170E080E090E00E94B94C8BE33D
:1038400099E00E943C0282EB97E00E94D304E6EBF1
:10385000FEE0F0933E19E0933D196FE17FE0709335
:103860003C1960933B194FEB5EE150934419409330
:10387000431920E93EE0309348192093471985E722
:1038800094E29093421980934119A2E4BEE1B0936F
:103890004C19A0934B19F0939709E09396097093F4
:1038A00095096093940950939D0940939C09309326
:1038B000A1092093A00990939B0980939A09689A83
:1038C00055985D9A56985E9A57985F9A5098589A6C
:1038D0006D9875981092C8098091C900877F809370
:1038E000C90011B88FEF82B908E414E080E5E82E32
:1038F00084E0F82EF801C1918F018C2F0E941D4B9E
:10390000EC2FF0E00E94604BE016F10699F70E9460
:10391000421120E530E044E16FEA77E089EA97E080
:103920000E94803B882309F47BC089EA97E090934A
:1039300063058093620589E897E00E94952E61E017
:1039400082E695E00E944139882351F062E675E0F5
:1039500089E897E00E94BC28882309F461C008C068
:1039600060E082E695E00E9441398111EFCF58C0B6
:1039700080918907807709F453C089E897E0909394
:103980005818809357180E949F1142E063E67EE02A
:1039900080E00E94C04280E00ADD0E9452128DB792
:1039A0009EB7C8970FB6F8949EBF0FBE8DBFADB738
:1039B000BEB7119688E3E3E5FAE001900D928A958F
:1039C000E1F782EB97E00E94690AEDB7FEB7F8963F
:1039D0000FB6F894FEBF0FBEEDBF8DB79EB7C89768
:1039E0000FB6F8949EBF0FBE8DBFADB7BEB7119690
:1039F00088E3E3E5FAE001900D928A95E1F70E94F1
:103A0000A114EDB7FEB7F8960FB6F894FEBF0FBE3F
:103A1000EDBF80E0CF911F910F91FF90EF909CCB75
:103A20006EE673E083E699E10E948D040E947211B4
:103A3000AF92BF92CF92DF92EF92FF920F931F93BC
:103A4000CF93DF93CDB7DEB7C05DD1090FB6F89441
:103A5000DEBF0FBECDBF8C0189E897E00E94A60FA4
:103A60006FE773E083E699E10E944504B80183E6BD
:103A700099E10E94A44083E699E10E94FA40CE01B8
:103A800087559F4F0E94AB0FC12CD12C760189EA3C
:103A9000A82EB12CAC0EBD1E88E0A80EB11C8091E2
:103AA000B6049091B704A091B804B091B904C816B7
:103AB000D906EA06FB0608F043C0C5010E94952E10
:103AC00041E069E877E0C5010E94942C40E850E0AD
:103AD000BE016F5F7F4FC5010E945931BE016F5F0C
:103AE0007F4FCE018F579F4F0E942E45CE018F579B
:103AF0009F4F0E947348C8010E947348B801CE01CD
:103B00008F579F4F0E942446882379F0C092B204B9
:103B1000D092B304E092B404F092B504CE018F5772
:103B20009F4F0E94C84411E00CC0CE018F579F4F99
:103B30000E94C8449FEFC91AD90AE90AF90AAFCF0F
:103B400010E089EA90E08C0F9D1F08960E94952E48
:103B5000111108C069E873E083E699E10E948D04C1
:103B600080E07EC080E8EAEBF4E0DF011D928A95F8
:103B7000E9F740E850E0BE016F5F7F4FCF010E9440
:103B80003D5780914205882321F082E495E00E9410
:103B9000952ECE018F579F4F0E94AB0F01E810E08A
:103BA0000C0F1D1F085F1F4F21E04AEB54E069E82E
:103BB00077E0C8010E949D2E80E2F801A2E4B5E002
:103BC00001900D928A95E1F7CD57DF4F8881C35858
:103BD000D04080933C05CC57DF4F88819981AA81E2
:103BE000BB81C458D04080933D0590933E05A0937F
:103BF0003F05B0934005C857DF4F8881C858D04073
:103C00008093410580914205811108C065E173E010
:103C100083E699E10E948D04709AFFCF0E945212B0
:103C20008DB79EB7C8970FB6F8949EBF0FBE8DBFD5
:103C3000ADB7BEB7119688E3E3E5FAE001900D92C7
:103C40008A95E1F782EB97E00E94690A1092541876
:103C50000FB6F894DEBF0FBECDBF80E07DDA81E005
:103C6000C053DF4F0FB6F894DEBF0FBECDBFDF915C
:103C7000CF911F910F91FF90EF90DF90CF90BF9069
:103C8000AF900895CF93DF93EC010E94AE15888129
:103C9000803F09F071C089818F3F09F06DC0DE015E
:103CA0001396E3E5FAE088E59AE02D9121932AE066
:103CB000E835F207D1F7AE01485F5F4FDE011F968E
:103CC000FA012191AF01FC012193CF014A175B0753
:103CD000B9F78FE59AE0AE01465E5F4F2D91FC018A
:103CE0002193CF01A417B507C9F78AE69AE0DE0150
:103CF0009596FA012191AF01FC012193CF014A175A
:103D00005B07B9F785E79AE0AE01405D5F4F2D9103
:103D1000FC012193CF01A417B507C9F7A0E8BAE0C9
:103D2000EB96FA018191AF018D93EC17FD07C9F76E
:103D30008DB79EB7C8970FB6F8949EBF0FBE8DBFC4
:103D4000ADB7BEB7119688E3E3E5FAE001900D92B6
:103D50008A95E1F782EB97E00E94690A1092541865
:103D6000EDB7FEB7F8960FB6F894FEBF0FBEEDBFE5
:103D700080E0DF91CF91F0C9DF91CF910895CF938B
:103D8000DF93862F609153188F3F09F4860F0E94AE
:103D9000F451D92F9093541880917A09DDD9E0918C
:103DA0005418C8E3CE9FF0011124ED5AF54F8DB79A
:103DB0009EB7C8970FB6F8949EBF0FBE8DBFADB724
:103DC000BEB711968C2F01900D928A95E1F782EB88
:103DD00097E00E94690A8DB79EB7C8960FB6F8940F
:103DE0009EBF0FBE8DBF60EA73E083E699E10E943B
:103DF00045046091541883E699E10E94890F64E9B3
:103E000072E083E699E10E9445046091531870E0E6
:103E10006150710983E699E10E94900FE091541876
:103E2000CE9FF0011124ED5AF54F8DB79EB7C8977C
:103E30000FB6F8949EBF0FBE8DBFADB7BEB711963B
:103E400001900D92CA95E1F70E94A114D093AF049E
:103E50008DB79EB7C8960FB6F8949EBF0FBE8DBFA4
:103E6000DF91CF910895CF92DF92EF92FF928091F0
:103E70009309823030F4F89488E899E00E94BD0FED
:103E800001C0F894C0908F09D0909009E0909109FA
:103E9000F090920978948091840990918509A0917D
:103EA0008609B09187098C159D05AE05BF0509F4FB
:103EB00050C0B701A6014370552766277727452BC9
:103EC000462B472B09F045C020917A09213099F003
:103ED00018F0223029F135C08C159D05AE05BF05BF
:103EE00014F082E001C081E062DA8FEF809302017A
:103EF000109261090FC0609154188C159D05AE0594
:103F0000BF0514F46F5F01C0615081E038DF8FEFAF
:103F10008093020180917A091FD90E945E1511C019
:103F20008C159D05AE05BF052CF482EB97E00E9431
:103F3000250C04C082EB97E00E94420C80917A0924
:103F40000BD9C0928409D0928509E0928609F0923B
:103F50008709FF90EF90DF90CF900895CF92DF9286
:103F6000EF92FF920F931F93CF93DF93CDB7DEB7FE
:103F700027970FB6F894DEBF0FBECDBF80917A09A8
:103F80008111C5C0809161098111C1C00AEB14E0A3
:103F9000F80101900020E9F73197EA5BF44074974B
:103FA00008F4B5C00FB6F8944091F1185091F2188A
:103FB0006091F3187091F4180FBE8091AB0490914A
:103FC000AC04A091AD04B091AE046A017B01C81AA3
:103FD000D90AEA0AFB0A8091000190910101A0E050
:103FE000B0E0C816D906EA06FB0608F490C0409374
:103FF000AB045093AC046093AD047093AE0440E006
:1040000060E083E699E00E941A3E62E073E083E696
:1040100099E00E948D0440E060E083E699E00E9410
:104020001A3E40E061E083E699E00E941A3E40912A
:104030008209509183099A012D5E3F4F6BE779E029
:10404000CE0101960E9404478091820990918309D4
:104050009C012F5F3F4F3093830920938209F80121
:1040600001900020E9F73197EA5BF44043968E1700
:104070009F0778F010928309109282092091000125
:104080003091010145E0429FC001439F900D1124F2
:1040900002C084EF91E09093010180930001BE0182
:1040A0006F5F7F4F83E699E00E94A44080917A0978
:1040B00040E060E0811117C083E699E00E941A3E5B
:1040C00061E073E083E699E00E94360440917A094A
:1040D00060E083E699E00E941A3E60E083E699E0A2
:1040E0000E94193F10C083E699E00E941A3E61E0E9
:1040F00073E083E699E00E94360440E060E083E6E6
:1041000099E00E941A3ECE0101960E94C84427966B
:104110000FB6F894DEBF0FBECDBFDF91CF911F91D8
:104120000F91FF90EF90DF90CF900895CF93DF93A2
:10413000CDB7DEB72E970FB6F894DEBF0FBECDBF5A
:1041400083E699E10E94B751892B09F4A5C083E663
:1041500099E10E94A5518E3309F493C09CF48B32EF
:1041600009F485C02CF4813259F70E94211294C0C1
:104170008D3209F480C08C3319F782EB97E00E94EE
:10418000420C8AC08C3609F46DC054F48F3309F4A4
:104190007DC08436A9F682EB97E00E94F3047CC0D0
:1041A0008F3629F1823761F648E750E063E679E11E
:1041B000CE0108960E94954241E050E060E070E038
:1041C000CE0108960E944248BE01685F7F4FCE0133
:1041D00001960E947D45CE0101962ADCCE01019612
:1041E0000E94C844CE0108960E94C844A9CF60EA44
:1041F00073E083E699E10E9445046091541883E6D8
:1042000099E10E94890F64E972E083E699E10E94D6
:1042100045046091531870E06150710983E699E19B
:104220000E94900FE091541888E38E9FF0011124B2
:10423000ED5AF54F2DB73EB7285331090FB6F89414
:104240003EBF0FBE2DBFADB7BEB7119601900D9208
:104250008A95E1F70E94A1140FB6F894DEBF0FBE55
:10426000CDBF1AC082EB97E00E94800915C0609113
:1042700054186F5F03C060915418615081E07FDD76
:104280000BC082EB97E00E94250C06C06AEB74E03D
:1042900083E699E10E948D042E960FB6F894DEBF56
:1042A0000FBECDBFDF91CF910895DF92EF92FF92C5
:1042B0000F931F93CF93DF93CDB7DEB7C055D109CE
:1042C0000FB6F894DEBF0FBECDBF7C018B01683006
:1042D000710508F062C0DD24DA94D9AE60961FAE95
:1042E000609761961FAE6197BE016F5F7F4F80E55B
:1042F000282F209FC001219F900D11240E94510F53
:1043000089AD90E00817190709F450C067EB73E016
:1043100083E699E10E948D046EEC73E083E699E1F7
:104320000E944504A80160E070E083E699E10E94E4
:104330008D4183E699E10E94FA4067ED73E083E6E0
:1043400099E10E94450449AD50E060E070E083E6E9
:1043500099E10E948D4183E699E10E94FA40D09252
:10436000020180917A090E94AC1842E060E083E685
:1043700099E00E941A3E6DED73E083E699E00E9499
:10438000450443E060E083E699E00E941A3E6DEE4A
:1043900073E083E699E00E944504E091541888E3B5
:1043A0008E9FF0011124ED5AF54F0EC061966FAD4E
:1043B000619782EB97E00E941F0C80917A090E941E
:1043C000AC1888E3FE013196D70101900D928A95D1
:1043D000E1F7C701C05BDF4F0FB6F894DEBF0FBE39
:1043E000CDBFDF91CF911F910F91FF90EF90DF90A4
:1043F0000895CF93DF93CDB7DEB7E8970FB6F89463
:10440000DEBF0FBECDBF809102018F3F09F44AC0CD
:1044100062E074E083E699E10E9445046091020144
:1044200083E699E10E94890F83E699E10E94FA40B0
:10443000809102011F928F93E091541888E38E9F20
:10444000F0011124ED5AF54F2DB73EB7285331092D
:104450000FB6F8943EBF0FBE2DBFADB7BEB71196D5
:1044600001900D928A95E1F70E94D5100FB6F8944D
:10447000DEBF0FBECDBF6091020170E0CE0101969C
:1044800014DF80917A090E94AC18809102010E9489
:104490008615E0910201F0E0E85BFB4FE081F0E07F
:1044A0000E945A4BE8960FB6F894DEBF0FBECDBF00
:1044B000DF91CF910895EF92FF921F93CF93DF93F7
:1044C0000E94AE1580914F0A9091500A2AE030E088
:1044D000B9010E940052CB01B9010E940052CFEFF6
:1044E000C80FD0E086E4E82EF12C80914F0A90911D
:1044F000500AFC013A97E434F10508F0E6C1E759A7
:10450000FF4F0C9465522091510A4C2F6D2F82EB76
:1045100097E00E94140DC13081F050F0C23091F04C
:10452000C33009F0D8C18091510A8093880AD3C161
:104530008091510A8093670ACEC18091510A80937D
:10454000720AC9C18091510A80937D0AC4C1209129
:10455000510A4C2F6D2F82EB97E00E943B0DC1302A
:1045600081F050F0C23091F0C33009F0B4C18091B5
:10457000510A8093870AAFC18091510A8093660ADD
:10458000AAC18091510A8093710AA5C18091510AF4
:1045900080937C0AA0C12091510A4C2F6D2F82EB91
:1045A00097E00E94600CC13081F050F0C23091F071
:1045B000C33009F090C18091510A8093850A8BC164
:1045C0008091510A8093640A86C18091510A809338
:1045D0006F0A81C18091510A80937A0A7CC120912F
:1045E000510A4C2F6D2F82EB97E00E94720CC13064
:1045F00081F050F0C23091F0C33009F06CC180916D
:10460000510A8093800A67C18091510A80935F0AA2
:1046100062C18091510A80936A0A5DC18091510AFA
:104620008093750A58C12091510A4C2F6D2F82EB4F
:1046300097E00E94950CC13081F050F0C23091F0AB
:10464000C33009F048C18091510A8093810A43C167
:104650008091510A8093600A3EC18091510A8093F3
:104660006B0A39C18091510A8093760A34C1209136
:10467000510A4C2F6D2F82EB97E00E94DF0CC13066
:1046800081F050F0C23091F0C33009F024C1809124
:10469000510A8093820A1FC18091510A8093610A56
:1046A0001AC18091510A80936C0A15C18091510AF8
:1046B0008093770A10C12091510A4C2F6D2F82EB05
:1046C00097E00E94B80CC13081F050F0C23091F0F8
:1046D000C33009F000C18091510A8093840AFBC065
:1046E0008091510A8093630AF6C08091510A8093A9
:1046F0006E0AF1C08091510A8093790AECC0209132
:10470000510A4C2F6D2F82EB97E00E94F10CC130C3
:1047100081F050F0C23091F0C33009F0DCC08091DC
:10472000510A8093830AD7C08091510A8093620A0C
:10473000D2C08091510A80936D0ACDC08091510AF8
:104740008093780AC8C02091510A4C2F6D2F82EBBC
:1047500097E00E945E0DC13081F050F0C23091F0C0
:10476000C33009F0B8C08091510A8093860AB3C063
:104770008091510A8093650AAEC08091510A80935E
:10478000700AA9C08091510A80937B0AA4C011E0ED
:104790008091510A9091520A8034910508F410E0FA
:1047A000212F4C2F6D2F82EB97E00E94850DC13099
:1047B00061F040F0C23061F0C33009F08CC010935A
:1047C0008A0A89C01093690A86C01093740A83C04C
:1047D00010937F0A80C061E08091510A9091520A43
:1047E0008034910508F460E06093570A60938F0A63
:1047F0006093C70A6093FF0A6093370B60936F0B57
:1048000082EB97E00E94A50D66C08091510A9091BD
:10481000520A8093530A80938B0A8093C30A809331
:10482000FB0A8093330B80936B0B61E0892B09F4B7
:1048300060E082EB97E00E94B00D4DC04091510ABC
:104840006D2F82EB97E00E94B70D8091510A809303
:104850005C0A41C04091510A6D2F82EB97E00E94A3
:10486000D60D8091510A80935B0A35C04091510A60
:104870006D2F82EB97E00E94FC0D8091510A80938E
:104880005A0A29C04091510A6D2F82EB97E00E948D
:104890001C0E8091510A8093590A1DC082EB97E04B
:1048A0000E94D30418C08091510A8093030113C061
:1048B000B7010E94005290910201981761F0809315
:1048C00002010E945E1595DD06C061E174E083E699
:1048D00099E10E948D04DF5FD63009F006CEDF91AA
:1048E000CF911F91FF90EF900895613089F4982F38
:1048F0009D7F913029F4642F82EB97E00C94AC08F3
:10490000853009F05EC061E08BE399E00C945D02B4
:10491000603429F5982F9D7F913071F481E0403407
:1049200008F480E08093A70482EB97E0403410F015
:104930000C949B080C947708823019F0843009F0AD
:1049400040C081E0403408F480E08093A6048BE30B
:1049500099E0403410F00C9428040C94070466325B
:1049600029F118F46630C9F00895623659F06336BB
:1049700041F580E8489FA00111245093500A4093CC
:104980004F0A089580914F0A9091500A840F911D0B
:104990009093500A80934F0A089580E8489FA001A1
:1049A00011245093520A4093510A08952091510ABC
:1049B0003091520A240F311D3093520A2093510A2C
:1049C0007ACD08958F929F92AF92BF92FF920F93EC
:1049D0001F93CF93DF93CDB7DEB7E8970FB6F89468
:1049E000DEBF0FBECDBF182F00910201883039F114
:1049F00058F48230A1F08430C1F08130D9F482EBD8
:104A000097E00E94800916C0803209F118F48031C5
:104A1000D1F010C08034F9F0803809F10BC00130BA
:104A200011F081E005C08FEF03C00230E1F382E0B6
:104A300080930201F12C812C912C54012BC0033066
:104A400091F383E0F5CF043071F384E0F1CF0530CA
:104A500051F385E0EDCF063031F386E0E9CF073042
:104A600011F387E0E5CF80B18F3F49F1113091F02C
:104A700061E070E080E090E00E94B94C20ED821689
:104A800027E09206A104B10448F43FEF831A930A89
:104A9000A30AB30A80B1181749F3E5CFF110F5CF97
:104AA0008091B104882309F46FC0809102018F3F87
:104AB00011F4009302019DDCFF24F394E6CFF11082
:104AC0004CC0109102011F3F09F1612F70E0CE012F
:104AD0000196EBDB8DB79EB7C8970FB6F8949EBFD3
:104AE0000FBE8DBFADB7BEB7119688E3FE013196FC
:104AF00001900D928A95E1F782EB97E00E94690A96
:104B00000FB6F894DEBF0FBECDBF27C0E09154189A
:104B100088E38E9FF0011124ED5AF54F2DB73EB773
:104B2000285331090FB6F8943EBF0FBE2DBFADB765
:104B3000BEB7119601900D928A95E1F782EB97E04E
:104B40000E94690A0FB6F894DEBF0FBECDBF8091F8
:104B50007A090E94AC18109302010E945E1562E36C
:104B600070E080E090E0E8960FB6F894DEBF0FBEEC
:104B7000CDBFDF91CF911F910F91FF90BF90AF906C
:104B80009F908F900C94B94CE8960FB6F894DEBFC6
:104B90000FBECDBFDF91CF911F910F91FF90BF90BE
:104BA000AF909F908F900895EF92FF920F931F9375
:104BB000CF93DF9360E089EF98E10E94644F811109
:104BC000F9CF1091BA09113108F0B6C18091B80936
:104BD0009091B909DC01ED91FC910084F185E02D03
:104BE0000995892B09F4A8C18091B8099091B90958
:104BF000DC01ED91FC910284F385E02D0995EC0137
:104C00008B7F893F09F498C18091C2099091C309B3
:104C1000009709F0B5C0C093BD090091BB09802F72
:104C20000E94D9160E94C516882361F0C7FD0AC0EC
:104C30000093BD09C093BE0981E090E09093C30941
:104C40008093C209C091BD098C2F0E94D916813F63
:104C5000910509F461C080F5803B910509F45FC0BE
:104C600068F48039910509F45AC0803A910509F435
:104C700056C08038910509F0E3C051C0803D9105D0
:104C800009F44AC028F4803C910509F445C0D8C015
:104C9000803E910509F443C0803F910509F0D0C0E2
:104CA00020E830E03093C1092093C0091092BB097D
:104CB00020EF2093CE0939C0883F9105B9F040F428
:104CC000833F910549F158F1863F910579F0B8C0CD
:104CD0008A3F910508F4B4C08D3F910538F09C01DE
:104CE0002E5F31092230310508F0AAC09093CB091C
:104CF0008093CA091092C9091092CC091092CD096B
:104D000081E080934E0A1092C3091092C20910925A
:104D1000C1091092C009F1C022E030E002C023E0D6
:104D200030E03093C1092093C0092091C20930912D
:104D3000C3094091C0095091C1094150510924173C
:104D40003507B8F09093CB098093CA09CF70CF5F35
:104D5000C093C9098091BE098093CC091092CD09F6
:104D60001092C3091092C2091092C1091092C00991
:104D700028C02F5F3F4F3093C3092093C209DCC086
:104D8000C7FF47C09E0133272D3F310554F42A3F0A
:104D900031056CF4273F3105C1F0283F3105C9F5D5
:104DA00006C0A9014E5F51094230510590F530937C
:104DB000CB092093CA091092CC091092CD09109208
:104DC000C90981E080934E0A98C02091CE09203F06
:104DD000B9F59C012F5F3F4FFC01EC56F64F47EFB2
:104DE00042AF80EF90E09093CB098093CA09209363
:104DF000CC093093CD091092C90981E080934E0A05
:104E00001092C3091092C2091092C1091092C009F0
:104E10006BC02091BD09FC01EC56F64F203FD9F440
:104E2000C2AFE090C009F090C1099701215031094B
:104E30008217930708F45BC00091BD09003F69F435
:104E40001092C3091092C2091092C1091092C009B0
:104E50001092BB0971C0C1A7E4CF802F0E94D91660
:104E6000EC019093CB098093CA090E94C516882350
:104E700031F0802F8F708F5F8093C90902C010922C
:104E8000C9098091BE098093CC0983E0E816F1043A
:104E900019F48091BF0901C080E08093CD09109280
:104EA000C3091092C2091092C1091092C00981E091
:104EB00080934E0AC03BD105A1F050F4C039D10512
:104EC00081F0C03AD10569F0C038D10569F409C054
:104ED000C03DD10531F0C03ED10519F0C03CD1052F
:104EE00019F40093BB0909C01092BB0906C00196D2
:104EF0009093C3098093C2091FC08091CA09909101
:104F0000CB098039910521F48091CD098823A9F13D
:104F10008091CA099091CB098058910981369105F9
:104F200098F58091C909181779F1112369F1612F5A
:104F300084E999E00E944A170E94331F8091620918
:104F4000882331F01092620980917A090E94AC188E
:104F500005D883E699E10E94B751181619060CF49A
:104F6000E5D880B1809509F02DDD809103018F3F58
:104F700081F08FEF809303010CC080E890E0909364
:104F8000CB098093CA09C4CF84E999E00E94D9155E
:104F9000CECFDF91CF911F910F91FF90EF900895A9
:104FA00080960C94EB36FC018281806882839F019D
:104FB000245F3F4F44855585668577858681978137
:104FC0000C9457388F929F92AF92BF92EF92FF92BC
:104FD0000F931F93CF93DF93EC01888185FF02C06D
:104FE00000E057C088899989AA89BB8981159E4F9D
:104FF000AF41B105A8F7CE01D6DF082F882381F392
:105000004C855D856E857F858E819F810E946A3784
:105010004B015C018E819F8125E0B501A401809642
:105020000E942C377C01892BD9F280E092E0F701B5
:105030009C01119221503040E1F711E0EE81FF8197
:105040008281181780F49701B501A401410F511D09
:10505000611D711D808191810E94E63C882309F4C5
:10506000BFCF1F5FEBCF90E0A0E0B0E029E0880F5A
:10507000991FAA1FBB1F2A95D1F7488959896A89A8
:105080007B89840F951FA61FB71F888B998BAA8BCE
:10509000BB8B802FDF91CF911F910F91FF90EF90ED
:1050A000BF90AF909F908F900895CF93DF93EC01C6
:1050B000262F4C895D896E897F898E819F8180969C
:1050C0000E942C37009761F02C813D812F7033278F
:1050D00045E0220F331F4A95E1F7820F931F02C06C
:1050E00080E090E0DF91CF910895CF93DF93DC01D2
:1050F000FC0190E048E080E05EE220812032C1F0D7
:10510000983031F4EB01C80FD11D58838F5F40E117
:1051100020813FEB320F3A3130F41C963C911C97C2
:10512000342309F0205EEB01C80FD11D28838F5F67
:105130009F5F31969B3009F7FB01E80FF11D10824C
:10514000DF91CF9108950F931F93FC01008911897E
:1051500022893389FB010083118322833383FC017D
:1051600084859585A685B785FB0184839583A68371
:10517000B7831F910F910895FC018081811114C0A4
:1051800080E2DF01982F1D929A95E9F77783668375
:10519000DB0115969C91903119F0903229F480E44E
:1051A000808381E08283089580E008953F924F924A
:1051B0005F926F927F928F929F92AF92BF92CF92A7
:1051C000DF92EF92FF920F931F93CF93DF9300D064
:1051D00000D0CDB7DEB79C838B834B017A01DC0115
:1051E0008C91882311F112969C9190FF1EC028C0CB
:1051F000F501338034220115110509F097C03110F3
:1052000095C0892B8A2B8B2B09F479C0AB81BC818B
:105210001C964D915D916D917C911F9729813A81EA
:10522000C5010E94883787FF79C0AB81BC81119688
:105230008C911197826011968C938FEF9FEF20C114
:1052400083FF17C0EB81FC81808D918DA28DB38D82
:105250004089518962897389841B950BA60BB70B12
:10526000A70160E070E0481759076A077B07D0F094
:1052700018C085FF17C0AB81BC811696ED91FC91DB
:1052800017978681978145E0880F991F4A95E1F726
:1052900050962D913C915197821B930B8E159F0533
:1052A00008F47C016701312CEB81FC813C96FA8388
:1052B000E983C114D10409F466C0EB81FC818089C3
:1052C0009189A289B3898C0111702081A680B78051
:1052D000AC01BD0139E076956795579547953A95AC
:1052E000D1F725FF85CFD5015C964D905D906D90EF
:1052F0007C905F97440E551E661E771E2BC026FDC0
:1053000002C0EB81FC81848D958DA68DB78DEB81DC
:10531000FC8184879587A687B78708C0811106C05E
:10532000EB81FC818081807771F57FCFAB81BC817F
:105330001C964D915D916D917C911F9716968D9164
:105340009C9117970E946A372B013C01430C511C1A
:10535000611C711CAB81BC811696ED91FC91179775
:105360000115110509F06AC0C114B2E0DB0608F4AA
:1053700065C043A154A165A176A1441655066606F1
:10538000770629F45BC0C7018C199D0979C0C11447
:10539000B4E0DB0698F18601012F11270695AB8159
:1053A000BC818C9185FD07C08281831990E08017B4
:1053B000910708F48C015801BA2CAA24BB0C44159F
:1053C00055056605770580F4AB81BC811696ED9195
:1053D000FC9117979401B301A201808191810E94F1
:1053E000833C811118C021CF400F511F611D711DD9
:1053F0004416550666067706E0F1E6CF9401B30140
:10540000A201808191810E94213C882309F40DCF63
:10541000A12C82E0B82E8A0C9B1CEB81FC81808938
:105420009189A289B3898A0D9B1DA11DB11D808B15
:10543000918BA28BB38BCA18DB083BCF20E0B30162
:10544000A201CF0180960E942C37009709F4EDCE7F
:1054500020E032E0201B310B56012C153D0508F4ED
:105460005901BC01600F711FA501C4010E94FA56C9
:10547000D2CFCF0180960E94EB368111A5CFD5CE39
:105480000F900F900F900F90DF91CF911F910F9180
:10549000FF90EF90DF90CF90BF90AF909F908F9054
:1054A0007F906F905F904F903F9008954F925F92E2
:1054B0006F927F928F929F92AF92BF92CF92DF9224
:1054C000EF92FF920F931F93CF93DF931F92CDB76D
:1054D000DEB74C016B012A013901AA24AA94BA2C27
:1054E000E12CF12C87010F5F1F4F0415150554F5B2
:1054F00041E050E0BE016F5F7F4FC40157DE5C01A9
:1055000081E0A816B104F1F469816D3019F48701C6
:105510007801E8CFF601EE0DFF1D60836114710480
:1055200019F46A30A9F708C0062E000C770BC301E6
:105530000E941457892B61F3F601E00FF11F1082CE
:10554000C80107C0B7FE03C08FEF9FEF02C08701FD
:10555000F3CF0F90DF91CF911F910F91FF90EF90BC
:10556000DF90CF90BF90AF909F908F907F906F9083
:105570005F904F900895FF920F931F93CF93DF9307
:105580001F92CDB7DEB78C01FC0180899189A28979
:10559000B3899C01AD0175E05695479537952795E0
:1055A0007A95D1F7F22FFF70FF2E11F0611115C01F
:1055B00041E050E0BE016F5F7F4FC801F7DD8130F1
:1055C00019F080E090E01AC0F80180899189A289E1
:1055D000B3894F96A11DB11D04C08096A11DB11DB8
:1055E000F801808B918BA28BB38BF8018681978118
:1055F0008796F0E2FF9E800D911D11240F90DF91A0
:10560000CF911F910F91FF9008954F925F926F92EB
:105610007F928F929F92AF92BF92CF92DF92EF9242
:10562000FF920F931F93CF93DF93EC014A015B012D
:105630004C845D846E847F84A881AA2309F491C080
:10564000488959896A897B89481559056A057B0506
:1056500009F48DC081149104A104B10429F41C86BD
:105660001D861E861F8678C0A3FF0BC0088D198D6E
:105670002A8D3B8D081519052A053B0508F471C0D4
:1056800014C0A5FF12C0EE81FF818681978125E0BD
:10569000880F991F2A95E1F7A0E0B0E088159905D9
:1056A000AA05BB0508F45DC057C0EE81FF81848167
:1056B00090E009968A019B010150110921093109E5
:1056C000082E04C036952795179507950A94D2F7AA
:1056D00075016401B1E0CB1AD108E108F10804C0FA
:1056E000F694E794D794C7948A95D2F7C016D1065A
:1056F000E206F30620F0452B462B472B99F4A6FF34
:1057000005C0848D958DA68DB78D04C08C8D9D8D23
:10571000AE8DBF8D8C879D87AE87BF878E01045F5E
:105720001F4F15C0C01AD10AE20AF30AF7CF4C8501
:105730005D856E857F8598018E819F810E94883767
:1057400091E0C91AD108E108F108181654F4C114FF
:10575000D104E104F10459F7888A998AAA8ABB8A9C
:1057600006C04C865D866E867F8680E001C081E043
:10577000DF91CF911F910F91FF90EF90DF90CF902D
:10578000BF90AF909F908F907F906F905F904F9061
:105790000895CF93DF93FC01208124FF21C0EC0109
:1057A0000E94A60F61E0CE01E6DE009721F4898118
:1057B000882369F015C0FC012081222341F0253E99
:1057C00089F32E3279F3838583FDECCF09C088E01D
:1057D00088838A8182608A83CE01DF91CF916CC7F2
:1057E00080E0DF91CF9108958F929F92AF92BF9208
:1057F000FF920F931F93CF93DF93EC01F22E80E281
:10580000DE011D928A95E9F7FB01868197819F83CE
:105810008E835D834C83848C958CA68CB78C888614
:105820009986AA86BB86FA01EF70FF27DC0197965E
:1058300035E0EE0FFF1F3A95E1F7AD014E0F5F1F08
:10584000DA011B962C9123FF03C0188280E062C00E
:105850009C012E0F3F1FD901D2962C9127712883CE
:10586000DA011B963C91387111F4286028830B8370
:105870002F2D227319F02881217139F72F2D2F70C8
:105880002A83DC0193964D915D916D917C91969761
:105890004C8B5D8B6E8B7F8BE80FF91F43AD54AD46
:1058A00060E070E0BA0155274427DF01AF5BBF4FCE
:1058B0000D911C9120E030E0402B512B622B732B7B
:1058C000F4FE0AC04115510561057105F1F00E9411
:1058D000F63881111AC0B9CF4C8F5D8F6E8F7F8FD4
:1058E000ED5BFF4F80819181A281B381888F998F79
:1058F000AA8FBB8FF5FE0DC0488D598D6A8D7B8DAB
:10590000CE0183DE811105C0A0CF8A8180688A83A1
:10591000F1CF81E0DF91CF911F910F91FF90BF9068
:10592000AF909F908F9008958F929F92AF92BF9269
:10593000DF92EF92FF920F931F93CF93DF93EB01D0
:10594000FC012081211138C028812077A9F1088924
:1059500019892A893B890F71112722273327012BA7
:10596000022B032B49F5142F7C0100E0D12C8888F1
:105970009988AA88BB8860E0CE01FDDD0097E1F040
:10598000FC0120812223C1F02E3211F400E0EFCF80
:10599000253EE1F3338533FD06C0002379F047D47B
:1059A000D8120AC00BC03F3089F726FFE0CF022F84
:1059B0000F71FC01D584DBCF80E00DC0B501A401DF
:1059C00085E076956795579547958A95D1F7212F6C
:1059D000BE01C70109DFDF91CF911F910F91FF90A9
:1059E000EF90DF90BF90AF909F908F900895BF92FF
:1059F000CF92DF92EF92FF920F931F93CF93DF939B
:105A0000FC018081882311F080E051C0DB019C9172
:105A10009077D1F327FDF8CF122F7A01EB016F01B8
:105A20004115510521F14150510960E070E085E0D8
:105A3000440F551F661F771F8A95D1F7CE01E5DD0C
:105A4000882311F360E0CE0196DDFC01892BE1F2A1
:105A500083858F3079F480818F71813059F4B584DA
:105A60000E2DB5E1EB16F10438F004E105C0CB01D1
:105A70000E94A60F00E0B12C60E0CE017CDD009713
:105A800009F4C2CFFC012081253E09F4BDCF2223B9
:105A900009F4BACF2E3209F4B7CF002319F0C7D3D7
:105AA0008B11B2CF212FA701BE01C6019DDEDF9170
:105AB000CF911F910F91FF90EF90DF90CF90BF900B
:105AC0000895CF92DF92EF92FF920F931F93CF939F
:105AD000DF93CDB7DEB7A0970FB6F894DEBF0FBE49
