:100000006FC100000C94873D0C94B83D0C94E93D01
:100010000C941A3E0C944B3E0C947C3E0C94AD3EDA
:100020000C94DE3E87C100000C94A2470C940C484F
:1000300081C100007FC100007DC100007BC10000C4
:1000400079C1000077C1000075C1000073C10000D4
:1000500071C100006FC100006DC100000C94014728
:1000600069C100000C94783A0C94A33A0C94D43AE9
:1000700061C100005FC100005DC100005BC1000004
:1000800059C1000057C1000055C1000053C1000014
:1000900051C100004FC1000058025D024A025D02DA
:1000A0004C024E025D0250025D0252025D02540299
:1000B00056022815811555154615A415A4151E15AB
:1000C000A4151E15A4151E151E151E15A4151E1506
:1000D0001E15B54AB94ACD4AA54BA54BD84AA54BE2
:1000E000E24AA54BF64A0A4B1C4BA54B2E4B404B04
:1000F00007634236B79BD8A71A39685618AEBAAB11
:10010000558C1D3CB7CC5763BD6DEDFD753EF617A4
:100110007231BF000000803F08000000BE922449F9
:10012000123EABAAAA2ABECDCCCC4C3E0000008029
:10013000BEABAAAAAA3E00000000BF000000803F9C
:100140000000000000084178D3BB4387D1133D195C
:100150000E3CC3BD4282AD2B3E68EC8276BED98F89
:10016000E1A93E4C80EFFFBE01C4FF7F3F000000CD
:100170000000FCF3CF3F0129022904290829102996
:10018000202940298029012C022C01260226042640
:1001900008261026202640268026402C802C01236D
:1001A000022304230823102320234023802301203B
:1001B0000220042008201020202040208020102C25
:1001C000202C012F022F042F082F102F202F402F1B
:1001D000802F7EFE7EFD7EFB7EF77EEF7EDF7EBF84
:1001E0007E7F00010000BA021200020000260273A6
:1001F000002201009902210021010082020900036E
:100200000000220204010309040C021414034D002F
:1002100065006700610020004D004900440049006E
:1002200000000403090409027300020100C032093E
:100230000400000201030000072401000141000640
:100240002402010100062402020200092403010322
:10025000010201000924030204010101000905044F
:10026000024000000000052501010109058302404C
:10027000000000000525010103090401000203003C
:10028000000009211101000122210007058103401E
:1002900000010705020320000206C9FF0904A15C52
:1002A0007508150026FF0095400975810295200903
:1002B00076910295040976B102C012010002000095
:1002C0000040C016850472020001000101C1360120
:1002D000C026018136018036AB15F33A4E4C3E16EE
:1002E00011241FBECFEFD0E2DEBFCDBF14E0A0E0EF
:1002F000B1E0E8E7F4EA00E00BBF02C007900D921E
:10030000A639B107D9F729E1A6E9B4E001C01D92E9
:10031000A235B207E1F711E0CFE6D1E004C02197A2
:10032000FE010E94ED4CCC36D107C9F70E945C4318
:100330000C94305265CECF93DF93EC0184E2888336
:1003400080E099E0ADE3B0E089839A83AB83BC831E
:1003500080910A0190910B01A0910C01B0910D01C7
:100360008D839E83AF83B88780910E0190910F019A
:10037000A091100189879A87AB871C861D861E86EF
:100380001F86188A198A1A8A1B8A86E0E1E1F1E041
:10039000DE01549601900D928A95E1F7FE017A965E
:1003A00089E0DF011D928A95E9F71BA21CA21DA21C
:1003B0008FEF80BB11BA88810E94A545E881F0E0EB
:1003C0000E94E245DF91CF910895DC01EC91F0E0CD
:1003D0000E94E24561BBFC01808190E0FC010E942B
:1003E000E84524E621500000E9F7FC010C94E245C1
:1003F000CF93DF93EC016FE9E8DF6FEBCE01E5DF30
:100400006FEDCE01E2DF6FEFCE01DF91CF91DDCF57
:10041000FC01E60FF11D40892FE730E0241B310974
:1004200043E0359527954A95E1F765816068622B31
:10043000CCCF0F931F93CF93DF938C01CFE7D0E006
:10044000C41BD10983E0CC0FDD1F8A95E1F721960B
:10045000F801638560688C2F8F70682BC801B5DF49
:10046000BE0194E0759567959A95E1F7C801DF9113
:10047000CF911F910F91A9CFDC011F96EC914E2FC8
:1004800050E0FA01FC97ED30F105B8F4E45BFF4F62
:100490000C94ED4C61E00DC062E00BC063E009C05C
:1004A00064E007C065E005C066E003C067E001C026
:1004B00060E0606E8ADF81E0089580E00895CF9368
:1004C000DF93EC018FE78B8B6F87CE01D5DF88231D
:1004D00029F063E0CE01DF91CF919ACFDF91CF91E8
:1004E0000895CF93DF93EC011B8A6F87C5DF8823C4
:1004F00029F063E0CE01DF91CF918ACFDF91CF91D8
:1005000008950F931F93CF93DF936330C8F4EA01EC
:100510008C01942F9F709068F801E60FF11D818582
:10052000692F682BC80151DFBE0184E0759567957E
:100530008A95E1F7C801DF91CF911F910F9145CFC7
:10054000DF91CF911F910F9108954F925F926F921B
:100550007F928F929F92AF92BF92FF920F931F93C1
:10056000CF93DF93633008F066C0F62E8C01C62F60
:10057000D0E0FC01EC0FFD1F648570E0655471094B
:10058000072E000C880B990B0E940F4E20E030E0E4
:1005900040E451E40E94744D4B015C012A96CC0F5B
:1005A000DD1FC00FD11F688179817052072E000CAA
:1005B000880B990B0E940F4E20E030E040E457E496
:1005C0000E94744D9B01AC01C501B4010E94104D05
:1005D0009B01AC0160E070E080E090E40E94FE4E80
:1005E0002B013C01F80161817281838194810E9419
:1005F0000F4E4B015C0120E030E04CED53E4C301B1
:10060000B2010E949B4E20E030E040E052E40E94A4
:100610009B4E9B01AC01C501B4010E94744D0E9428
:10062000E14D6115F4E07F0730F4AB016F2DC80197
:1006300068DF81E001C080E0DF91CF911F910F91D1
:10064000FF90BF90AF909F908F907F906F905F9042
:100650004F900895633040F4FC01E60FF11DE60F62
:10066000F11D558B448B71CF0895643008F4D0CEC2
:100670000895BF92CF92DF92EF92FF920F931F9354
:10068000CF93DF93FC01C0E0D0E0328D311110C078
:10069000B22EC42ED62E8C017E01EE0CFF1CF7016B
:1006A000EC0FFD1FE00FF11F848D68130FC004C015
:1006B000348D36131BC0ECCF838D882339F0F801BD
:1006C000EC0FFD1F108A6C2FC801CFDFF701EC0F74
:1006D000FD1FE00FF11F81E0828FD48E8091960480
:1006E000838FFC2E83E0C81307C020C02196339669
:1006F000C330D10551F61AC0C00FD11FDC86BB2014
:1007000011F0C88A02C08FE7888B6F2DC8011DDFEA
:10071000882361F06F2DC801DF91CF911F910F9158
:10072000FF90EF90DF90CF90BF909FCFDF91CF9160
:100730001F910F91FF90EF90DF90CF90BF900895A1
:10074000FC0120E030E0448D461314C0438D41117C
:1007500011C0F901EE0FFF1FE20FF31FE80FF91FA1
:10076000128EFC01E20FF31F448564130AC0108A45
:10077000622F7BCF2F5F3F4F33962330310519F720
:1007800008950895DDCFEF92FF920F931F93CF93BB
:10079000DF938C01EC017C0189E0E80EF11C8B8D6C
:1007A000882339F08A8D882321F01B8E6C8DC80137
:1007B000C7DF2396CE15DF0591F7DF91CF911F910B
:1007C0000F91FF90EF900895FC01099621E0338D81
:1007D000311103C0328D3111238F3396E817F90799
:1007E000B1F70895FB0101900020E9F73197AF01BF
:1007F000461B570BDC01ED91FC910280F381E02D4B
:100800000994F0CF362F242F462F50E060E070E09F
:10081000211108C0DC01ED91FC910190F081E02DE7
:10082000632F09942A3011F0213019F420E00C9440
:100830009C3B203111F40C94153C223011F40C94A3
:10084000513C0C94853CFA01AB01770F660B770B9A
:10085000EA30F10511F40C94083CE11108C0DC0108
:10086000ED91FC910190F081E02D642F0994EA3024
:1008700011F0E13019F420E00C949C3BE03111F4CC
:100880000C94153CE23011F40C94513C2E2F0C9436
:10089000853C0F931F93CF93DF93EC01A3DF8C0173
:1008A000CE010E94823B800F911FDF91CF911F915B
:1008B0000F910895CF93DF93FC018AE080838BE052
:1008C00081838CE082838DE083838EE084838FE05C
:1008D0008583168287E087831086DF01A25ABE4F88
:1008E0008EE1ED0119928A95E9F75E961C928FEFE1
:1008F00080BB11BA87B988B18C6388B9A357B1405E
:1009000086E9ED0119928A95E9F7E156FF4F87E8EC
:10091000DF011D928A95E9F7DF91CF910895FC01DF
:10092000808190E0FC010E94E84524E6322F31509E
:100930000000E9F7FC010E94E24521500000E9F7C0
:100940000895AF92BF92CF92DF92EF92FF920F93F2
:100950001F93CF93DF93EC0167E171E082E499E1AB
:1009600098DF7E0189E0E80EF11C00E010E021E252
:10097000C22ED12CC80187709927892BD1F401157B
:10098000110521F082E499E10E94823B63E371E06A
:1009900082E499E136DF40E150E0B60182E499E17A
:1009A00052DF6DEA72E082E499E12BDFE8E0CE0EDF
:1009B000D11C5701F7018081803128F466E371E092
:1009C00082E499E11EDFFFEFEF1AFF0A40E150E0F9
:1009D000F501608182E499E115DF6CEF72E082E459
:1009E00099E10FDF0F5F1F4F0F30110509F0C2CFE4
:1009F00082E499E10E94823B82E499E10E94823B79
:100A000068E371E082E499E144DF7E01F8E1EF0EF2
:100A1000F11C00E010E090E3C92ED12CC8018770D2
:100A20009927892BB9F482E499E10E94823B63E320
:100A300071E082E499E1E5DE40E150E0B60182E454
:100A400099E101DF6DEA72E082E499E1DADE88E0A3
:100A5000C80ED11C5701F7018081803128F466E36C
:100A600071E082E499E1CDDEFFEFEF1AFF0A40E189
:100A700050E0F501608182E499E1C4DE6CEF72E040
:100A800082E499E1BEDE0F5F1F4F0738110509F0C0
:100A9000C5CF82E499E10E94823B82E499E10E9401
:100AA000823B6FE471E082E499E1F3DEC156DF4FEF
:100AB00000E010E080E3E82EF12CC8018770992750
:100AC000892BD1F40115110521F082E499E10E94EE
:100AD000823B63E371E082E499E193DE40E150E020
:100AE000B70182E499E1AFDE6DEA72E082E499E158
:100AF00088DEF8E0EF0EF11C6E018881803128F469
:100B000066E371E082E499E17CDE219640E150E009
:100B1000F601608182E499E175DE6CEF72E082E4B7
:100B200099E16FDE0F5F1F4F0738110509F0C5CF40
:100B3000DF91CF911F910F91FF90EF90DF90CF90B9
:100B4000BF90AF900895DC01862F90E08A0F9B1F25
:100B5000FC01222319F0E159FF4F01C0789740832F
:100B60001596EC911597F0E0022E0E94DF45149641
:100B7000EC911497F0E00E94E8451196EC911197E2
:100B8000F0E00E94E84561BB12968C91129790E0CC
:100B9000FC010E94E84524E0322F31500000E9F7C3
:100BA000FC010E94E24511968C91119790E0FC01A6
:100BB0000E94E2451496EC911497F0E00E94E24501
:100BC000FC010E94E84541BB12968C91129790E07F
:100BD000FC010E94E84521500000E9F7FC010E9459
:100BE000E2451196EC911197F0E00E94E2451496CF
:100BF000EC91F0E00C94E845EF92FF920F931F9375
:100C0000CF93DF937C01EB01842F22E030E0C1150C
:100C100098E0D90728F0D695C7952F5F3F4FF7CFBB
:100C200001E0833008F400E063E00E947C4C192F5F
:100C3000422F4770440F440F440F4D2B64EA690F55
:100C4000202FC70180DF60EA610F202F4C2FC701E2
:100C5000DF91CF911F910F91FF90EF9074CFCF92C2
:100C6000DF92EF92FF92CF93DF93DC01862F6CE04F
:100C70000E947C4C24E0929FF0011124EF50FE4F23
:100C8000C080D180E280F3801896CC910C2E000CAD
:100C9000DD0BC80FD11DCC0FDD1FCC0FDD1FCB53DB
:100CA000DE4F28EB3EE145E85DEBC701B6010E944F
:100CB0009B4EA70196010E94104D288139814A81DF
:100CC0005B810E949B4EDF91CF91FF90EF90DF9070
:100CD000CF9008952F923F924F925F926F927F92A2
:100CE0008F929F92AF92BF92CF92DF92EF92FF923C
:100CF0000F931F93CF93DF93CDB7DEB727970FB630
:100D0000F894DEBF0FBECDBF9F838E83B62E342EE8
:100D1000822EFC01E25AFE4F00E010E0808181113A
:100D200011C025E0209FC001219F900D11242E812C
:100D30003F81820F931FFC01E05AFE4F2081B212C7
:100D40001DC004C082818B113AC0EBCFFC01E15A77
:100D5000FE4F8081882391F041E0033011050CF4AF
:100D600040E0440F440FC80163E070E00E949C4CD7
:100D7000480F20E068E28E819F81E5DE85E0809F5C
:100D80009001819F300D11248E819F81280F391F82
:100D9000F901E25AFE4F81E080833296B0823196AB
:100DA0008B2D6CE00E947C4C80833297809197045D
:100DB00080833396809198048083902E47C00F5F84
:100DC0001F4F35960630110509F0A8CFEE81FF813F
:100DD000EE59FE4F2E813F8120583E4F99249A9420
:100DE0008081891508F4982E3596E217F307C1F72C
:100DF00041E092E0991508F040E0440F440F892D3E
:100E000063E00E947C4C490F20E068E28E819F8164
:100E10009ADEEE81FF81A5E09A9EE00DF11D11247E
:100E2000DF01A25ABE4F81E08C931296BC921196BC
:100E30008B2D6CE00E947C4C8C93129780919704D0
:100E40008C93EE59FE4F8091980480838091980492
:100E50008F5F90E066E070E00E949C4C8093980465
:100E6000892D63E00E947C4C292EB1E0BD8322E0F5
:100E7000291508F01D820091990410919A0401151A
:100E8000110559F46B2D8E819F81E9DE0E94E14DA1
:100E9000492D8E819F81B0DE3BC06EEF6B0D8E8140
:100EA0009F81DDDE6B017C0162E06B0D8E819F8195
:100EB000D6DE2B013C01C701B6010E94DC4D5B016F
:100EC0006C01C801110FAA0BBB0B89839A83AB83FA
:100ED000BC83C301B2010E94DC4D9F938F937F932B
:100EE0006F93E12C10E2F12E00E010E020E030EEF4
:100EF0004FEF5FEF69817A818B819C810E940F3F68
:100F0000492D8E819F8178DE0F900F900F900F906A
:100F1000811023C080EF820D4D81440F440F480F94
:100F200020E068E28E819F8127960FB6F894DEBF9D
:100F30000FBECDBFDF91CF911F910F91FF90EF902A
:100F4000DF90CF90BF90AF909F908F907F906F90E9
:100F50005F904F903F902F90F6CDEE81FF81E85645
:100F6000FF4F80818770E82E1FE71319B12C92E0A4
:100F7000C92ED12C0CE484E4A82E9B2D9170F92E5F
:100F8000A6E0AE1550F0B5E0EB1688F424E0E212CE
:100F90001BC02F2D412F6A2D14C037E0E31214C05F
:100FA0002F2D412F64EF600F8E819F81CCDD2F2D7F
:100FB000412F6A2D8E819F81C6DD2F2D412F6CEF31
:100FC000600F8E819F81BFDD2F2D412F602F8E817D
:100FD0009F81B9DDA3940F5F0F3491F681E0C81AA9
:100FE000D108B3949B2D9170B92EC114D10409F48A
:100FF00091CFC0CFDC01FC01E15AFE4F80E090E0D0
:10100000218126131CC02081211119C025E0289FB1
:10101000F001299FF00D1124EA0FFB1FE25AFE4F49
:10102000108241E0833008F440E0440F440F63E055
:101030000E947C4C490F20E068E2CD0184CD0196EE
:10104000359686309105E1F60895EF92FF920F9361
:101050001F93CF93DF938C01EC01C25ADE4F7C01CA
:1010600084E8E81A8EEFF80A8981882339F08881AC
:10107000882321F019826A81C801BCDF2596CE152C
:10108000DF0591F7DF91CF911F910F91FF90EF90C6
:101090000895FC01E25AFE4F84589E4F21E03181B1
:1010A000311103C03081311121833596E817F907DA
:1010B000B1F70895AF92BF92CF92DF92EF92FF9275
:1010C0000F931F93CF93DF93EC0170E080E090E0EB
:1010D0001F921F921F9227E02F93A12CB12C650124
:1010E0001FE7E12EF12C00E010E020E030E0A90144
:1010F0000E940F3F6E83FE01E458FE4F0F900F9049
:101100000F900F908081882359F1462F486020E08E
:1011100062E2CE0118DD1F81183078F066E671E0DA
:1011200082E499E1DF91CF911F910F91FF90EF90B1
:10113000DF90CF90BF90AF90ACCB106F04EB20E06E
:10114000412F602FCE01FFDC0F5F073BC1F704EB9F
:1011500021E0412F602FCE01F6DC0F5F073BC1F786
:10116000DF91CF911F910F91FF90EF90DF90CF9083
:10117000BF90AF9008954F925F926F927F929F922F
:10118000AF92BF92CF92DF92EF92FF920F931F9395
:10119000CF93DF9300D000D000D0CDB7DEB79E83D1
:1011A0008D83962E2A01FC0185E0689FE00DF11DDC
:1011B0001124E05AFE4FB0806EEF6B0D8D819E8141
:1011C0004EDD6B017C0162E06B0D8D819E8147DD00
:1011D00069837A838B839C8350929A04409299040A
:1011E000C701B6010E94DC4D5B016C01052C000CAF
:1011F0006608770869817A818B819C810E94DC4D29
:101200009F938F937F936F93E12C10E2F12E00E078
:1012100010E020E030EE4FEF5FEFC301B2010E941B
:101220000F3F0F900F900F900F90492D8D819E8151
:1012300026960FB6F894DEBF0FBECDBFDF91CF91DB
:101240001F910F91FF90EF90DF90CF90BF90AF90E4
:101250009F907F906F905F904F90CECC5F926F92F7
:101260007F928F929F92AF92BF92CF92DF92EF9236
:10127000FF920F931F93CF93DF93CDB7DEB7E8971D
:101280000FB6F894DEBF0FBECDBF8C016C0184E8B1
:10129000C81A8EEFD80AF601908181E089278083F1
:1012A00069E971E082E499E1ACDAF60180818111AB
:1012B00003C065E971E002C062E971E082E499E18E
:1012C000E8DA88E3F801EA5DFE4FDE01119601904D
:1012D0000D928A95E1F7F801ED5CFE4F708039962A
:1012E00060803296B080399680803296E080399660
:1012F00090803296F0803996A080F6018081882314
:1013000009F44AC0F8014681486020E062E2C80161
:101310001ADCF72DF0687F2E8B2D8068682E9E2DAD
:101320009068A92EEF2DE0685E2EE12C92E0892EC8
:10133000912C80E6F82EFE2DF170BF2E2F2F472D19
:101340006F2DC80100DC64E06F0D2B2D462DC80108
:10135000FADB68E06F0D2B2D4A2DC801F4DB6CE041
:101360006F0D2B2D452DC801EEDBF8014781406F35
:1013700064E56F0D2B2DC801E6DBF394F3E6FF1255
:10138000DACF81E0881A9108E3949E2D9170E92EBE
:101390008114910479F1CDCF20E040E062E2C801F0
:1013A000D2DBC801BCDA61E070E080E090E00E942E
:1013B00041477E866F8AB98E8AA2ECA29DA6FFA6BF
:1013C000A8AEEDB7FEB7F8970FB6F894FEBF0FBE04
:1013D000EDBFADB7BEB7119688E3FE01319601901F
:1013E0000D928A95E1F7C80122D00FB6F894DEBFBE
:1013F0000FBECDBFF6018081882311F0599A01C03C
:101400005998E8960FB6F894DEBF0FBECDBFDF91B6
:10141000CF911F910F91FF90EF90DF90CF90BF90F1
:10142000AF909F908F907F906F905F9008955F92A4
:101430006F927F928F929F92AF92BF92CF92DF92E4
:10144000EF92FF920F931F93CF93DF93CDB7DEB749
:101450008C01DC01AA5DBE4F88E3FE01729601900B
:101460000D928A95E1F7F801E458FE4F80808820BC
:1014700011F0C801F3DE20E040E062E2C80163DB66
:1014800020E040E067E2C8015EDB20E040E068E287
:10149000C80159DB20E040E06BE2C80154DBD12CED
:1014A000912C792C770C770CF12C5BA0ACA020E46C
:1014B000A29EC0011124AE8CA82AB8A420E8B29E36
:1014C000C0011124BF8CB82A68A0CAA020E1C29E26
:1014D000C0011124C9A0C82A8EA120E1829FC001A9
:1014E00011244DA1482B60E36F0D8D2D8170E82EE6
:1014F000282FC80128DB60E46F0D2E2D452DC80173
:1015000022DB60E56F0D2E2D4A2DC8011CDB60E645
:101510006F0D2E2D4B2DC80116DB60E76F0D2E2DA4
:10152000462DC80110DB60E86F0D2E2D4C2DC80133
:101530000ADB60E96F0D2E2D40E0C80104DB5EA4DC
:10154000AFA420E4A29EC0011124A9A4A82ABBA88C
:1015500020E8B29EC0011124BAA4B82A6BA4CDA47D
:1015600020E1C29EC0011124CCA4C82A89A920E18F
:10157000829FC001112448A9482B64E36F0D2E2DD2
:10158000C801E1DA64E46F0D2E2D452DC801DBDAC8
:1015900064E56F0D2E2D4A2DC801D5DA64E66F0D76
:1015A0002E2D4B2DC801CFDA64E76F0D2E2D462D61
:1015B000C801C9DA64E86F0D2E2D4C2DC801C3DABD
:1015C00064E96F0D2E2D40E0C801BDDA59ACAAAC1C
:1015D00020E4A29EC0011124ACA8A82ABEAC20E839
:1015E000B29EC0011124BDA8B82A6EA8C8AC20E1E3
:1015F000C29EC0011124CFA8C82A8CAD20E1829FD1
:10160000C00111244BAD482B68E36F0D2E2DC8018E
:101610009ADA68E46F0D2E2D452DC80194DA68E53D
:101620006F0D2E2D4A2DC8018EDA68E66F0D2E2D16
:101630004B2DC80188DA68E76F0D2E2D462DC801A5
:1016400082DA68E86F0D2E2D4C2DC8017CDA68E92E
:101650006F0D2E2D40E0C80176DA25965FAC2597F8
:101660002696AFAC269720E4A29EC0011124AFAC11
:10167000A82A2A96BFAC2A9720E8B29EC00111245E
:101680002196BFAC2197B82A22966FAC2297249658
:10169000CFAC249720E1C29EC00111242396CFAC89
:1016A0002397C82A28968FAD289720E1829FC001F2
:1016B000112427964FAD2797482B6CE36F0D2E2DE5
:1016C000C80141DA6CE46F0D2E2D452DC8013BDABF
:1016D0006CE56F0D2E2D4A2DC80135DA6CE66F0DC5
:1016E0002E2D4B2DC8012FDA6CE76F0D2E2D462DB8
:1016F000C80129DA6CE86F0D2E2D4C2DC80123DAB4
:101700006CE96F0D2E2D40E0C8011DDA888D28E0B0
:10171000829FC0011124498D482B60EB6F0D2E2D47
:10172000C80111DA64EB6F0D2E2D40ECC8010BDA05
:10173000472D4F0D20E068E2C80105DAF39483E0FD
:10174000F812B3CE9394D3942D2D2170D22E82E033
:101750009812A7CE882089F0C801DF91CF911F9100
:101760000F91FF90EF90DF90CF90BF90AF909F9040
:101770008F907F906F905F9071CDDF91CF911F918F
:101780000F91FF90EF90DF90CF90BF90AF909F9020
:101790008F907F906F905F900895FC01608708950F
:1017A000FC0180850895CF93DF93FC0120852530CF
:1017B000A1F0EC012F5F20876FE971E082E499E1ED
:1017C00020D84885042E000C550B660B770B82E45D
:1017D00099E1DF91CF910C94083CDF91CF9108956E
:1017E000CF93DF93FC0120852B3FA1F0EC0121502A
:1017F000208761EB71E082E499E103D84885042EEB
:10180000000C550B660B770B82E499E1DF91CF91C9
:101810000C94083CDF91CF91089580E090E008950A
:10182000FC01808583FF0DC080A191A1A2A1B3A17D
:10183000408D518D628D738D841B950BA60BB70B5C
:1018400003C080E090E0DC01811520E89207A1054B
:10185000B10520F08FEF9FE7A0E0B0E00895809100
:101860005D098F5F63E00E947C4C90935D0981E08D
:1018700080934509089508960C94BD29CF93DF9372
:101880001F92CDB7DEB7698341E050E0BE016F5FC4
:101890007F4F08960E94BD290F90DF91CF91089548
:1018A00008960C948D28CF93DF931F92CDB7DEB7A7
:1018B00041E050E0BE016F5F7F4F08960E945E23BB
:1018C000019719F4898190E002C08FEF9FEF0F908C
:1018D000DF91CF91089508960C94CD280F931F9314
:1018E000CF938B01982F9D7F913051F4C0E0A801D8
:1018F0006C2F81EA97E03FDCCF5FC630C1F70EC0A6
:10190000823011F0843051F4C0E0A8016C2F8EE1D8
:1019100099E00E942A03CF5FC330B9F7CF911F919E
:101920000F91089591E090934409982F9D7F9130F5
:1019300081F49091A004911104C0909102019F3F05
:10194000D9F021E0833009F020E06D5F81EA97E073
:10195000C1C9823011F0843041F421E0843009F0B3
:1019600020E08EE199E00C943903853029F421E0E0
:101970008EE199E00C945F020895982F9D7F91303D
:1019800021F46D5F81EA97E035CB823011F084302D
:1019900021F48EE199E00C94C203853021F48EE1AC
:1019A00099E00C9471020895613079F4982F9D7F2D
:1019B000913021F4642F81EA97E07CCB853049F5A2
:1019C00061E08EE199E00C941902603411F5982FD2
:1019D0009D7F913061F481E0403408F480E0809391
:1019E000970481EA97E0403408F053CB2ECB823045
:1019F00011F0843071F481E0403408F480E0809389
:101A000096048EE199E0403410F00C94E4030C94B9
:101A1000C30308956D3F710538F46A3F710550F4B2
:101A2000683F710589F406C09B012E5F31092230A1
:101A3000310550F4DC018D919C91DC01ED91FC911C
:101A40000190F081E02D09940895CF92DF92EF92FA
:101A5000FF920F931F93CF93DF93EB017B0120E560
:101A6000E20EF11C8B016C01C61AD70AC601800F69
:101A7000911F0E941A52F80181938F01EE15FF0504
:101A8000A9F7CE01DF91CF911F910F91FF90EF90B9
:101A9000DF90CF900895462F50E060E070E020E0A6
:101AA0000C949C3B0F931F93CF93DF93EC01AB01FE
:101AB000770F660B770B0E94083C8C01CE010E94C9
:101AC000823B800F911FDF91CF911F910F9108955D
:101AD00040E050E0BA010C948D25FC01108611867F
:101AE000128288EE93E0A0E0B0E083839483A58324
:101AF000B683178282E194E0918380830895DC01AC
:101B0000ED91FD918081ED91FD919081ED91FD919F
:101B10006C9163708E2309F064609F2309F0686004
:101B2000ECE9FDE0E60FF11D659565956D936D910E
:101B30007D918D919D91099423C01AC012C016C049
:101B400010C01EC009C014C013C006C019C009C00F
:101B50000DC007C00DC014C062507040804090405E
:101B60000BC0615070408040904006C06E5F01C065
:101B70006F5F7F4F8F4F9F4F9E938E937E936E9399
:101B800008958091461890914718B9CF80914418D4
:101B900090914518B4CF8091421890914318AFCFDF
:101BA0008091401890914118AACF80913E18909151
:101BB0003F18A5CF80913C1890913D18A0CF8091FF
:101BC0003A1890913B189BCF809138189091391812
:101BD00096CF8330D9F160F4813031F170F5709394
:101BE00039186093381841E064EE7DE080E048C029
:101BF0008331F1F160F4823109F046C070934518E9
:101C00006093441841E066EC7DE086E039C08432A0
:101C100031F18532C9F5709343186093421841E061
:101C20006BEC7DE085E02CC070933B1860933A1814
:101C300041E06FED7DE081E023C070933D1860933B
:101C40003C1841E06AED7DE082E01AC070933F18D5
:101C500060933E1841E065ED7DE083E011C0709334
:101C600041186093401841E060ED7DE084E008C0D9
:101C7000709347186093461841E061EC7DE087E07F
:101C80000E94483D81E0089580E008950F931F93DE
:101C9000CF93DF93EC01062F142F862F0E94B645B9
:101CA000812F0E94B645802F90E0880F991FFC017C
:101CB000E958FE4FE491AE2FB0E0B983A883FC0150
:101CC000EA58FE4F24912C83812F90E0880F991FB2
:101CD000FC01E958FE4FE4914E2F50E05B834A83AC
:101CE000FC01EA58FE4F84918D831F821886198665
:101CF0001A86E0E4FFE13197F1F7EC91E22391E0FD
:101D000009F490E0DA01EC91E82309F092609E83F7
:101D1000BE01802F5EDF8B87BE01812F5ADF9B853E
:101D2000890F8B87DF91CF911F910F910895AF920B
:101D3000BF92DF92EF92FF920F931F93CF93DF93A7
:101D4000CDB7DEB7C055D1090FB6F894DEBF0FBED0
:101D5000CDBFCC56DF4FE880F980C459D04088E031
:101D6000E816F10408F03FC088E3FE01E45AFF4F93
:101D7000DE01119601900D928A95E1F7E9AE44E1FA
:101D800050E069EA74E0CE01CA960E94C5512F96D0
:101D90001FAE2F978091331860968FAF609781EABE
:101DA00097E0FEDC61968FAF619780E58E9D8001A4
:101DB0008F9D100D1124FE0131967F015801F0E531
:101DC000AF0EB11CF701D1907F01C8010E941A52D9
:101DD000D81621F06D2DC8010E9422520F5F1F4FAF
:101DE0000A151B0579F7C05BDF4F0FB6F894DEBF0D
:101DF0000FBECDBFDF91CF911F910F91FF90EF905C
:101E0000DF90BF90AF900895EF92FF920F931F93D2
:101E1000CF93DF93C8E3D4E000E414E07E01D70160
:101E2000ED917D01F0E00E94E24564E670E080E023
:101E300090E00E944147B0E4EB16B4E0FB0679F76E
:101E4000E991F0E00E94E84564E670E080E090E00F
:101E50000E9441470C171D0799F7DF91CF911F9101
:101E60000F91FF90EF90089586E499E00E949438D6
:101E700086E499E00E949B3861E272E086E499E092
:101E80000E94010441E060E086E499E00E94A238EB
:101E900069E272E086E499E00E940104A8E3B4E0FC
:101EA00080E090E0EC91F0E080FD03C00E94E2450C
:101EB00002C00E94E845019611968830910591F77D
:101EC000FFCFEF92FF920F931F93CF93DF93CDB786
:101ED000DEB7AF970FB6F894DEBF0FBECDBFCE0111
:101EE0000196FBDD09EA14E080E8F82E41E068E79E
:101EF00077E0CE0109960E941C27882309F44FC081
:101F0000F8018F2D11928A95E9F740E850E069EACF
:101F100074E0CE0109960E94E12B8091A9048E32D3
:101F2000D1F469EA74E088E797E00E949D29811165
:101F300012C0CE0109960E94E92781110CC067E307
:101F400072E082E499E10E94010469EA74E082E4AB
:101F500099E10E94490469EA74E0CE0189960E94E1
:101F6000B63F62E572E0CE0189960E94BC40E82E41
:101F7000CE0189960E94503FEE2061F0CE01099675
:101F80000E94E927811106C06CE672E082E499E1C3
:101F90000E944904CE0109960E941D29A7CFCE01B7
:101FA00009960E941D2988E797E092DDAF960FB64B
:101FB000F894DEBF0FBECDBFDF91CF911F910F917F
:101FC000FF90EF90089581EA97E00E948F048EE1E0
:101FD00099E00E94F801E091331888E3E89FF0014E
:101FE0001124EE5CF54F8DB79EB7C8970FB6F894E5
:101FF0009EBF0FBE8DBFADB7BEB7119688E30190EF
:102000000D928A95E1F781EA97E011DA8DB79EB7D4
:10201000C8960FB6F8949EBF0FBE8DBF61E872E000
:1020200082E499E10C9449048F929F92AF92BF92FF
:10203000CF92DF92EF92FF920F931F93CF93DF9394
:10204000CDB7DEB7C559D1090FB6F894DEBF0FBEC4
:10205000CDBF10E07E0123E4E20EF11C20E030E071
:102060004CE350E0B70181E395E00E94DE24892B28
:1020700009F403C2B701CE0183579F4F0E94B63FB8
:1020800062E972E0CE0181589F4F0E94B63FBE01C7
:1020900061587F4FCE0183579F4F0E940141082F07
:1020A000CE0181589F4F0E94503F0111D8C1612F2E
:1020B000CE018A579F4F0E94D43F65E972E0CE015E
:1020C00081589F4F0E94B63FBE016A577F4FCE0195
:1020D00081589F4F0E945C4068E972E00E9469400D
:1020E000BC01CE0183579F4F0E940141082FCE01B2
:1020F00081589F4F0E94503FCE018A579F4F0E94A8
:10210000503F002321F01093321801E0AFC1612F3E
:10211000CE018A579F4F0E94D43F65E972E0CE01FD
:1021200081589F4F0E94B63FBE016A577F4FCE0134
:1021300081589F4F0E945C40BC01CE0183579F4F46
:102140000E940141082FCE0181589F4F0E94503FAD
:10215000CE018A579F4F0E94503F002309F47DC152
:10216000CE0101964C016C0120E030E04CE350E0E0
:10217000B70181E395E00E94DE24B701CE018357C9
:102180009F4F0E940E406DEF72E0CE0181589F4F2D
:102190000E94B63F69E971E0CE018A579F4F0E94C5
:1021A000B63FAE0141585F4FBE016A577F4FCE0127
:1021B00083579F4F0E94D341CE018A579F4F0E9461
:1021C000503FCE0181589F4F0E94503F6DEF72E00B
:1021D000CE0181589F4F0E94B63F61EA72E0CE0166
:1021E0008A579F4F0E94B63FAE0141585F4FBE01D4
:1021F0006A577F4FCE0183579F4F0E94D341CE0134
:102200008A579F4F0E94503FCE0181589F4F0E9496
:10221000503F6DEF72E0CE0181589F4F0E94B63F54
:1022200066EA72E0CE018A579F4F0E94B63FAE0128
:1022300041585F4FBE016A577F4FCE0183579F4F72
:102240000E94D341CE018A579F4F0E94503FCE013A
:1022500081589F4F0E94503F6DEF72E0CE01815830
:102260009F4F0E94B63F6BEA72E0CE018A579F4FA4
:102270000E94B63FAE0141585F4FBE016A577F4F83
:10228000CE0183579F4F0E94D341CE018A579F4F63
:102290000E94503FCE0181589F4F0E94503F6DEFEA
:1022A00072E0CE0181589F4F0E94B63F60EB72E012
:1022B000CE018A579F4F0E94B63FAE0141585F4FF3
:1022C000BE016A577F4FCE0183579F4F0E94D34173
:1022D000CE018A579F4F0E94503FCE0181589F4F99
:1022E0000E94503F6DEF72E0CE0181589F4F0E94D7
:1022F000B63F65EB72E0CE018A579F4F0E94B63F12
:10230000AE0141585F4FBE016A577F4FCE018357E0
:102310009F4F0E94D341CE018A579F4F0E94503F4A
:10232000CE0181589F4F0E94503F20E030E04CE3A7
:1023300050E0B701CE0183579F4F0E940F414AE002
:1023400050E0BE016C567F4FC7010E946350F601FA
:102350006083AA24A394B12C4AE050E0BE016C56DD
:102360007F4FCC56DF4F88819981C459D0400E945D
:102370006350F601EA0DFB1D6083FFEFAF1ABF0A41
:102380002BE0A216B10441F78BE0C80ED11CCE148D
:10239000DF0409F0E9CEE8E31E9FC001112420E02C
:1023A00030E0F40141914F01F901E80FF91FEE5CB3
:1023B000F54F40832F5F3F4F2530310591F7FE01E8
:1023C0003C968E5C954F20E030E04191DC01A20FFD
:1023D000B31F15964C932F5F3F4F27303105A9F758
:1023E000FE01779620E030E04191DC01A20FB31F9F
:1023F0001C964C932F5F3F4F2B303105A9F7FE0100
:10240000B29620E030E04191DC01A20FB31F579655
:102410004C932F5F3F4F2B303105A9F7FE01BD963E
:1024200020E030E04191DC01A20FB31F92964C9363
:102430002F5F3F4F2B303105A9F7FE01F89620E0C2
:1024400030E04191DC01A20FB31F9D964C932F5FAA
:102450003F4F2B303105A9F71F5F1F3331F0CE01FD
:1024600083579F4F0E94503FF9CD00E0CE01835724
:102470009F4F0E94503F011102C01093321811115A
:1024800005C01092A0046AEB72E005C081E0809361
:10249000A0046AEC72E082E499E10E944904CB5600
:1024A000DF4F0FB6F894DEBF0FBECDBFDF91CF91E7
:1024B0001F910F91FF90EF90DF90CF90BF90AF9062
:1024C0009F908F900895EF92FF920F931F93CF9359
:1024D000DF93CDB7DEB769E971E082E499E10E944C
:1024E0000104CE0109967C018E01025F1F4FF701A6
:1024F00061917F0182E499E1CEDA6CEF72E082E4CF
:1025000099E10E940104E016F10689F782E499E15D
:102510000E94823B61EA72E082E499E10E94010438
:102520007E01F5E1EF0EF11CF80161918F0182E46B
:1025300099E1B1DA6CEF72E082E499E10E94010462
:102540000E151F0589F782E499E10E94823B66EA35
:1025500072E082E499E10E9401048E01005E1F4F47
:10256000F70161917F0182E499E195DA6CEF72E005
:1025700082E499E10E940104E016F10689F782E401
:1025800099E10E94823B6BEA72E082E499E10E9449
:1025900001047E01FBE2EF0EF11CF80161918F0155
:1025A00082E499E178DA6CEF72E082E499E10E94CA
:1025B00001040E151F0589F782E499E10E94823B10
:1025C00060EB72E082E499E10E9401048E010A5CF2
:1025D0001F4FF70161917F0182E499E15CDA6CEFB2
:1025E00072E082E499E10E9401040E151F0589F74B
:1025F00082E499E10E94823B65EB72E082E499E11A
:102600000E9401047E01F1E4EF0EF11CF8016191DA
:102610008F0182E499E13FDA6CEF72E082E499E1A4
:102620000E940104E016F10689F782E499E10E9414
:10263000823BDF91CF911F910F91FF90EF90089512
:10264000E3E0F0E00E94E845E4E0F0E00E94E845C5
:10265000E5E0F0E00E94E845E6E0F0E00E94E845B1
:10266000E7E0F0E00E94E845E8E1F0E00E94E8459C
:10267000EBE1F0E00E94E845E0910201E83038F437
:10268000F0E0E85CFB4FE081F0E00C94E245089557
:102690000F931F93CF93DF938830E8F404E010E0AA
:1026A000E82FF0E0E85CFB4FC081D0E0FE010E9423
:1026B000E24564E670E080E090E00E944147FE0160
:1026C0000E94E84564E670E080E090E00E944147A7
:1026D0000150110959F7DF91CF911F910F91089582
:1026E000DC01D6968D919C91D797813F910509F495
:1026F000B5C038F5803B910509F45FC078F48039A6
:102700009105E9F1803A910509F474C0803891058A
:1027100009F0D1C0ED91FC91119770C0803D9105F9
:1027200009F478C028F4803C910509F478C0089534
:10273000803E910509F446C0803F910509F47CC0B4
:1027400008958A3F910529F170F4833F910509F4BA
:102750009DC008F488C0863F910509F4A0C0883F59
:10276000910591F008958C3F9105E9F0B8F08E3F06
:102770009105F1F08F3F910509F496C008951296E6
:10278000ED91FC9113973AC05896ED91FC915997B1
:102790008FC05A96ED91FC915B978AC05C96ED9143
:1027A000FC915D9785C05E96ED91FC915F9780C02E
:1027B0009096ED91FC9191977BC01696ED91FC91CE
:1027C00017971CC01C96ED91FC911D97309709F44A
:1027D00072C0D9966C91D9976F7720E8629FB0014B
:1027E0001124D8968C91D8978F77682B7052D596F4
:1027F0008C9109941496ED91FC911597309709F4FA
:102800005AC0D9964C91D997D8966C91D897D596AD
:102810008C9109941A96ED91FC911B9704C018961F
:10282000ED91FC911997309709F445C0D8966C91B9
:10283000D897D5968C9109941E96ED91FC911F978F
:102840003097C9F1D8966D917C91D997613871050F
:1028500010F060E870E0CD01CA9609945096ED91B1
:10286000FC91519717C05296ED91FC915397309778
:1028700011F1D9968C91D9978F7720E8829FC0016A
:102880001124D8962C912F77822B09945496ED9190
:10289000FC915597309779F0D8968C91099456967B
:1028A000ED91FC91579704C09296ED91FC9193970E
:1028B000309709F0099408959C018F7C8038910528
:1028C00061F0203D310549F081E0203E310539F0CD
:1028D000203C310521F080E0089581E008950895BD
:1028E00087FF0DC09CE0980F923048F0982F9B7F97
:1028F000993F29F0803F08F4807F90E0089580E0C0
:1029000090E00895DF92EF92FF920F931F93CF9381
:10291000DF930150003108F04BC0603871050CF4B2
:1029200047C0613E7105ACF5122FD42EEB017C013E
:10293000DC0194968D919C919597602BDC01ED9133
:10294000FC910190F081E02D0995F70184A195A1FA
:102950006D2D6F77DC01ED91FC910190F081E02D00
:102960000995BE016F7E603C710511F1F70184A1EC
:1029700095A1612F6F77DC01ED91FC910190F081C1
:10298000E02DDF91CF911F910F91FF90EF90DF909D
:1029900009949B01285F31092830310548F4849659
:1029A000DF91CF911F910F91FF90EF90DF9032C890
:1029B000DF91CF911F910F91FF90EF90DF900895DD
:1029C000EF92FF920F931F93CF93DF93EC019CA99B
:1029D000292F217090FFB8C0892F8E7F09F4B4C0D1
:1029E000362F6EA97FA9AB014058510941365105D8
:1029F000D0F40DA9031719F021E0311120E09695CC
:102A0000923031F0933041F0913009F09DC006C012
:102A1000222309F499C002C0211196C029AD48AD06
:102A2000CE0170DF91C0FB01E05FF109E031F105FB
:102A300008F08AC0E75AFF4F0C94ED4CCE01849603
:102A4000DF91CF911F910F91FF90EF900C940A0DA1
:102A50008E01065C1F4F780188AD99AD81389105D4
:102A600010F080E890E0080F191F0E151F0509F4FB
:102A70006BC08CA19DA1D7016D917D01DC01ED9111
:102A8000FC910190F081E02D0995EFCF18AD8CA15C
:102A90009DA1DC01ED91FC910190F081E02D63EFAF
:102AA00009958CA19DA1612F24C009ADB0E80B9FB1
:102AB0008001112488AD082B8CA19DA1DC01ED9132
:102AC000FC910190F081E02D62EF09958CA19DA110
:102AD000602F6F77DC01ED91FC910190F081E02D8A
:102AE00009958CA19DA1000F012F001F110B1195BD
:102AF000602F6F77DC01ED91FC910190F081E02D6A
:102B00001CC088AD8770B0E18B9FC001112419AD46
:102B10001F70182B8CA19DA1DC01ED91FC910190FF
:102B2000F081E02D61EF09958CA19DA1DC01ED9173
:102B3000FC910190F081E02D612FDF91CF911F91E9
:102B40000F91FF90EF900994DF91CF911F910F911A
:102B5000FF90EF9008958F92AF92CF92EF920F93E4
:102B6000CF93DF93E7E7F9E088E498E195A384A3A6
:102B700016A217A210A615A614A617A616A68FEFC2
:102B80009FEF91AB80AB93AB82AB83E08093AB09BB
:102B900015AA17AA16AA10AE11AE1092310A80E833
:102BA000A1EBB9E0ED0119928A95E9F71182108243
:102BB0001382128215821482178216821186108661
:102BC000138612861586148617861686118A108A31
:102BD000138A128A158A148A178A168A118E108E01
:102BE000138E128E158E148E178E168E11A210A2B1
:102BF00013A212A243E162E18BE699E047D860E0BC
:102C000070E08EE599E00E94B63F8DE28F938CE2F2
:102C10008F938BE2882E9AE2A92E29E2C22E38E207
:102C2000E32E07E226E24AE161E186E499E00E94B0
:102C30004F398EE199E00E949B0181EA97E00E9462
:102C40005A0410925605109278071092790784E67C
:102C50008093980710929D0780E580939E071092BD
:102C60009F070F900F9089E295E0DF91CF910F9130
:102C7000EF90CF90AF908F900C946D0D8EE599E012
:102C80000C94503F1F93CF93DF93CDB7DEB7C7555A
:102C9000D1090FB6F894DEBF0FBECDBF182F86E462
:102CA00099E00E94943886E499E00E949B38109342
:102CB0005D09412F60E086E499E00E94A2386CEF44
:102CC00072E086E499E00E94010440915D0942307F
:102CD000B8F460E086E499E00E94A2386CEF72E0FC
:102CE00086E499E00E94010440915D0960E086E479
:102CF00099E00E94A23860E086E499E00E94A13940
:102D000040E061E086E499E00E94A23869EA74E05C
:102D1000CE018F5A9F4F0E94B63F63E170E0CE0113
:102D20008F5A9F4F0E94BB42BC01CE018F5A9F4FCA
:102D30000E94FB3F69EA74E08EE599E00E940E4034
:102D4000BE016F5A7F4F86E499E00E942C3B41E020
:102D500061E086E499E00E94A2388091A004882373
:102D600011F162EE72E086E499E00E940104609144
:102D7000331886E499E00E944B0D63E972E086E423
:102D800099E00E9401044091321850E041505109ED
:102D9000052E000C660B770B86E499E00E94083C38
:102DA0006BEF72E002C06AEE72E086E499E00E9486
:102DB000010441E06FE086E499E00E94A23864EFEC
:102DC00072E086E499E00E94010481EA97E00E94A3
:102DD000D00B182F87FD06C068EF72E086E499E0FB
:102DE0000E940104412F110F550B660B770B86E4EF
:102DF00099E00E94083C80915D098230B9F441E07D
:102E00006EE086E499E00E94A2386CEF72E086E4FE
:102E100099E00E94010441E06EE086E499E00E949E
:102E2000A23860E086E499E00E94A1398091020115
:102E3000883008F042C09FEF99AF60961FAE609750
:102E400061961FAE6197BE016F5F7F4F20E5829F45
:102E5000C00111240E94250D42E060E086E499E063
:102E60000E94A238BE01665C7F4F86E499E00E9412
:102E7000010443E060E086E499E00E94A23862EE3B
:102E800072E086E499E00E94010460966FAD60975D
:102E900086E499E00E944B0D6AEF72E086E499E0C7
:102EA0000E94010462E086E499E00E94A1396091E9
:102EB000020186E499E00E944B0DCE018F5A9F4F8C
:102EC0000E94503FC95ADF4F0FB6F894DEBF0FBEC5
:102ED000CDBFDF91CF911F910895CF92DF92EF92F6
:102EE000FF921F93CF93DF93CDB7DEB7C055D109C3
:102EF0000FB6F894DEBF0FBECDBF182FCE01899656
:102F00000E946D0D80E8E9EAF4E0DF011D928A95E8
:102F1000E9F7113009F45FC020F0123009F490C0D5
:102F200010C1CE0101960E946D0D41E068E777E087
:102F3000CE0109960E941C278823C1F0CE01099674
:102F40000E941D298091A5049091A604A091A70438
:102F5000B091A8040196A11DB11D8093A504909382
:102F6000A604A093A704B093A804DFCFCE010996CE
:102F70000E941D2988E797E00E94680D8091310525
:102F8000882321F081E395E00E941D2941E068E754
:102F900077E081E395E00E941C2780913105811143
:102FA00003C06EEF72E003C140E850E069EA74E0EC
:102FB00081E395E00E94E12B69EA74E082E499E103
:102FC0000E9449041092A1041092A2041092A3043A
:102FD0001092A40411C18091A1049091A204A09127
:102FE000A304B091A4040196A11DB11D4091A504B4
:102FF0005091A6046091A7047091A80484179507C6
:10300000A607B70768F088E797E00E94680D10925E
:10301000A1041092A2041092A3041092A40408C068
:103020008093A1049093A204A093A304B093A4045A
:1030300041E068E777E0CE01C1960E941C273CC0C2
:103040008091A1049091A204A091A304B091A40442
:103050000097A105B105E9F10197A109B109809394
:10306000A1049093A204A093A304B093A40488E7BE
:1030700097E00E94680DC12CD12C76018091A104AB
:103080009091A204A091A304B091A4048C159D0575
:10309000AE05BF0588F0CE01C1960E941D2941E012
:1030A00068E777E0CE01C1960E941C27BFEFCB1ADC
:1030B000DB0AEB0AFB0AE2CF40E850E069EA74E081
:1030C000CE01C1960E94E12BCE01C1960E941D291E
:1030D00038C08091A5049091A604A091A704B09156
:1030E000A8040197A109B1098093A1049093A204B7
:1030F000A093A304B093A40488E797E00E94680D0E
:10310000C12CD12C76018091A1049091A204A091B0
:10311000A304B091A4048C159D05AE05BF0560F213
:10312000CE01C1960E941D2941E068E777E0CE01FB
:10313000C1960E941C278FEFC81AD80AE80AF80A1D
:10314000E2CF80913105882321F081E395E00E9450
:103150001D29CE0101960E946D0D21E049EA54E03F
:1031600068E777E0CE0109960E94252980E2FE01FA
:103170003996A1E3B5E001900D928A95E1F78B8134
:1031800080932B058C819D81AE81BF8180932C051E
:1031900090932D05A0932E05B0932F0588858093DD
:1031A000300580913105811108C060E173E082E44F
:1031B00099E10E9449040E94340F0E941410ADB797
:1031C000BEB7D8970FB6F894BEBF0FBEADBF11966D
:1031D00088E3E2E3FAE001900D928A95E1F781EA53
:1031E00097E00E94170A109233180FB6F894DEBFCA
:1031F0000FBECDBF80E046DD81E0C05BDF4F0FB684
:10320000F894DEBF0FBECDBFDF91CF911F91FF902D
:10321000EF90DF90CF900895EF92FF920F931F935E
:10322000CF93259A3E9A90E49093800089E0809312
:1032300081001092890010928800909390008093F2
:10324000910081E090E0909399008093980040E095
:1032500052EC61E070E082E499E10E94AE4B48E2FA
:1032600054E060E086E499E00E947A3940E354E05B
:1032700061E086E499E00E947A3940E254E062E03D
:1032800086E499E00E947A3920E044E064E186E433
:1032900099E00E94BB3864E273E086E499E00E9402
:1032A000010441E060E086E499E00E94A23864E312
:1032B00073E086E499E00E94010442E060E086E465
:1032C00099E00E94A23864E473E086E499E00E94E9
:1032D000010443E060E086E499E00E94A23866E5DC
:1032E00073E086E499E00E94010465E673E086E4F9
:1032F00099E00E9401044FEF60E470E080919B0927
:1033000090919C090E943D3A10929D0910929F094C
:1033100010929E091092A6091092A5091092A40974
:103320001092A3098FEF9FEF9093A8098093A709AC
:103330009093AA098093A9091092310A1092AE09BC
:103340001092AD091092AC091092AF091092B00919
:103350008091AB098170826081608093AB0964E1E8
:1033600070E080E090E00E9441478EE199E00E9489
:10337000F80181EA97E00E948F04E2E9FCE0F09313
:103380001D19E0931C196DEB7CE070931B19609381
:103390001A1945E45CE150932319409322192EE653
:1033A0003CE0309327192093261984ED9CE09093FC
:1033B000211980932019F0937A09E0937909709389
:1033C0007809609377095093800940937F0930937F
:1033D00084092093830990937E0980937D09689ADC
:1033E00055985D9A56985E9A57985F9A5098589A51
:1033F0006D9875981092AB098091C900877F809372
:10340000C90011B88FEF82B908E314E080E4E82E18
:1034100084E0F82EF801C1918F018C2F0E94A54500
:10342000EC2FF0E00E94E845E016F10699F70E94C3
:10343000040F20E530E044E16EE977E088E997E0A9
:103440000E940836882309F47BC088E997E09093AE
:1034500052058093510588E797E00E941D2961E09D
:1034600081E595E00E94C933882351F061E575E05C
:1034700088E797E00E944423882309F461C008C0CC
:1034800060E081E595E00E94C9338111EFCF58C01B
:1034900080917807807709F453C088E797E090938C
:1034A0003718809336180E94610F42E06FE27CE08B
:1034B00080E00E94483D80E010DD0E9414108DB72E
:1034C0009EB7C8970FB6F8949EBF0FBE8DBFADB71D
:1034D000BEB7119688E3E2E3FAE001900D928A9577
:1034E000E1F781EA97E00E94170AEDB7FEB7F89678
:1034F0000FB6F894FEBF0FBEEDBF8DB79EB7C8974D
:103500000FB6F8949EBF0FBE8DBFADB7BEB7119674
:1035100088E3E2E3FAE001900D928A95E1F70E94D8
:103520006312EDB7FEB7F8960FB6F894FEBF0FBE64
:10353000EDBF80E0CF911F910F91FF90EF90A2CB54
:103540006BE673E082E499E10E9449040E94340F23
:10355000AF92BF92CF92DF92EF92FF920F931F93A1
:10356000CF93DF93CDB7DEB7C05DD1090FB6F89426
:10357000DEBF0FBECDBF8C0188E797E00E94680DCB
:103580006CE773E082E499E10E940104B80182E4EF
:1035900099E10E942C3B82E499E10E94823BCE019A
:1035A00087559F4F0E946D0DC12CD12C760189EA61
:1035B000A82EB12CAC0EBD1E88E0A80EB11C8091C7
:1035C000A5049091A604A091A704B091A804C816E0
:1035D000D906EA06FB0608F043C0C5010E941D2972
:1035E00041E068E777E0C5010E941C2740E850E011
:1035F000BE016F5F7F4FC5010E94E12BBE016F5F6F
:103600007F4FCE018F579F4F0E94B63FCE018F57FD
:103610009F4F0E94FB42C8010E94FB42B801CE01AD
:103620008F579F4F0E94AC40882379F0C092A1042D
:10363000D092A204E092A304F092A404CE018F578A
:103640009F4F0E94503F11E00CC0CE018F579F4FFB
:103650000E94503F9FEFC91AD90AE90AF90AAFCF71
:1036600010E089EA90E08C0F9D1F08960E941D29AA
:10367000111108C066E873E082E499E10E944904F0
:1036800080E07EC080E8E9EAF4E0DF011D928A95DF
:10369000E9F740E850E0BE016F5F7F4FCF010E9425
:1036A000C55180913105882321F081E395E00E9486
:1036B0001D29CE018F579F4F0E946D0D01E810E02C
:1036C0000C0F1D1F085F1F4F21E049EA54E068E717
:1036D00077E0C8010E94252980E2F801A1E3B5E066
:1036E00001900D928A95E1F7CD57DF4F8881C3583D
:1036F000D04080932B05CC57DF4F88819981AA81D8
:10370000BB81C458D04080932C0590932D05A09385
:103710002E05B0932F05C857DF4F8881C858D04079
:103720008093300580913105811108C060E173E01C
:1037300082E499E10E944904709AFFCF0E9414101C
:103740008DB79EB7C8970FB6F8949EBF0FBE8DBFBA
:10375000ADB7BEB7119688E3E2E3FAE001900D92AF
:103760008A95E1F781EA97E00E94170A10923318D0
:103770000FB6F894DEBF0FBECDBF80E083DA81E0E4
:10378000C053DF4F0FB6F894DEBF0FBECDBFDF9141
:10379000CF911F910F91FF90EF90DF90CF90BF904E
:1037A000AF900895CF93DF93609132188F3F09F463
:1037B000860F0E947C4CD92F9093331880915D091D
:1037C00061DAE0913318C8E3CE9FF0011124EE5C7A
:1037D000F54F8DB79EB7C8970FB6F8949EBF0FBE32
:1037E0008DBFADB7BEB711968C2F01900D928A9503
:1037F000E1F781EA97E00E94170A8DB79EB7C89655
:103800000FB6F8949EBF0FBE8DBF6DE973E082E4E2
:1038100099E10E9401046091331882E499E10E94C9
:103820004B0D63E972E082E499E10E94010460912A
:10383000321870E06150710982E499E10E94520DE2
:10384000E0913318CE9FF0011124EE5CF54F8DB757
:103850009EB7C8970FB6F8949EBF0FBE8DBFADB789
:10386000BEB7119601900D92CA95E1F70E946312BE
:10387000D0939F048DB79EB7C8960FB6F8949EBF9D
:103880000FBE8DBFDF91CF9108958D7F813011F4F0
:10389000862F88CF0895CF92DF92EF92FF9280918A
:1038A0007609823030F4F8948BE699E00E947F0D1F
:1038B00001C0F894C0907209D0907309E090740927
:1038C000F09075097894409167095091680960916A
:1038D000690970916A094C155D056E057F0509F44B
:1038E0004DC0D701C60183709927AA27BB27892B12
:1038F0008A2B8B2B09F042C080915D09813099F0B1
:1039000018F0823021F132C04C155D056E057F053F
:1039100014F082E001C081E0E0DA8FEF80930201D1
:10392000109244090EC0809133184C155D056E0548
:103930007F0514F48F5F01C0815034DF8FEF8093D7
:10394000020180915D099ED90E9420130FC081EA77
:1039500097E04C155D056E057F051CF40E94D30BA6
:1039600002C00E94F00B80915D098CD9C09267095A
:10397000D0926809E0926909F0926A09FF90EF908D
:10398000DF90CF900895CF92DF92EF92FF920F9346
:103990001F93CF93DF93CDB7DEB727970FB6F89479
:1039A000DEBF0FBECDBF80915D098111C5C0809182
:1039B00044098111C1C009EA14E0F8010190002016
:1039C000E9F73197E95AF440749708F4B5C00FB697
:1039D000F8944091D0185091D1186091D2187091FC
:1039E000D3180FBE80919B0490919C04A0919D04DC
:1039F000B0919E046A017B01C81AD90AEA0AFB0A3F
:103A00008091000190910101A0E0B0E0C816D906B4
:103A1000EA06FB0608F490C040939B0450939C0474
:103A200060939D0470939E0440E060E086E499E01A
:103A30000E94A2386DEF72E086E499E00E9449048A
:103A400040E060E086E499E00E94A23840E061E056
:103A500086E499E00E94A238409165095091660978
:103A60009A012D5E3F4F6EE579E0CE0101960E94EE
:103A70008C4180916509909166099C012F5F3F4FB1
:103A80003093660920936509F80101900020E9F759
:103A90003197E95AF44043968E179F0778F01092B9
:103AA000660910926509209100013091010145E0FD
:103AB000429FC001439F900D112402C084EF91E00A
:103AC0009093010180930001BE016F5F7F4F86E4F8
:103AD00099E00E942C3B80915D0940E060E08111FB
:103AE00017C086E499E00E94A2386CEF72E086E489
:103AF00099E00E94F20340915D0960E086E499E05C
:103B00000E94A23860E086E499E00E94A13910C0CA
:103B100086E499E00E94A2386CEF72E086E499E0B6
:103B20000E94F20340E060E086E499E00E94A2383F
:103B3000CE0101960E94503F27960FB6F894DEBF43
:103B40000FBECDBFDF91CF911F910F91FF90EF90EE
:103B5000DF90CF900895CF93DF93CDB7DEB72E9748
:103B60000FB6F894DEBF0FBECDBF82E499E10E948C
:103B70003F4C892B09F4A4C082E499E10E942D4CAA
:103B80008E3309F492C09CF48B3209F485C02CF476
:103B9000813259F70E94E30F93C08D3209F480C03F
:103BA0008C3319F781EA97E00E94F00B89C08C36BC
:103BB00009F46DC054F48F3309F47CC08436A9F63F
:103BC00081EA97E00E94A1047BC08F3629F18237F9
:103BD00061F648E750E062E479E1CE0108960E9480
:103BE0001D3D41E050E060E070E0CE0108960E948B
:103BF000CA42BE01685F7F4FCE0101960E94054018
:103C0000CE010196A5DCCE0101960E94503FCE0167
:103C100008960E94503FA9CF6DE973E082E499E1D4
:103C20000E9401046091331882E499E10E944B0DD7
:103C300063E972E082E499E10E9401046091321824
:103C400070E06150710982E499E10E94520DE091A7
:103C5000331888E38E9FF0011124EE5CF54F2DB7E9
:103C60003EB7285331090FB6F8943EBF0FBE2DBFA3
:103C7000ADB7BEB7119601900D928A95E1F70E94FB
:103C800063120FB6F894DEBF0FBECDBF19C081EA34
:103C900097E00E942E0914C0809133188F5F03C0F3
:103CA0008091331881507EDD0BC081EA97E00E943D
:103CB000D30B06C069EA74E082E499E10E944904EA
:103CC0002E960FB6F894DEBF0FBECDBFDF91CF9119
:103CD0000895DF92EF92FF920F931F93CF93DF939C
:103CE000CDB7DEB7C055D1090FB6F894DEBF0FBE11
:103CF000CDBF7C018B016830710508F062C0DD2406
:103D0000DA94D9AE60961FAE609761961FAE619748
:103D1000BE016F5F7F4F80E5282F209FC001219F4C
:103D2000900D11240E94250D89AD90E00817190708
:103D300009F450C064EB73E082E499E10E94490405
:103D40006BEC73E082E499E10E940104A80160E059
:103D500070E082E499E10E94153C82E499E10E94BE
:103D6000823B64ED73E082E499E10E94010449AD75
:103D700050E060E070E082E499E10E94153C82E44A
:103D800099E10E94823BD092020180915D090E94DC
:103D9000421642E060E086E499E00E94A2386AEDB3
:103DA00073E086E499E00E94010443E060E086E469
:103DB00099E00E94A2386AEE73E086E499E00E94DE
:103DC0000104E091331888E38E9FF0011124EE5C2A
:103DD000F54F0EC061966FAD619781EA97E00E9442
:103DE000CD0B80915D090E94421688E3FE01319659
:103DF000D70101900D928A95E1F7C701C05BDF4FB3
:103E00000FB6F894DEBF0FBECDBFDF91CF911F91EB
:103E10000F91FF90EF90DF900895CF93DF93CDB790
:103E2000DEB7E8970FB6F894DEBF0FBECDBF809126
:103E300002018F3F09F44AC06FEF73E082E499E119
:103E40000E9401046091020182E499E10E944B0DFD
:103E500082E499E10E94823B809102011F928F933C
:103E6000E091331888E38E9FF0011124EE5CF54F4A
:103E70002DB73EB7285331090FB6F8943EBF0FBE99
:103E80002DBFADB7BEB7119601900D928A95E1F79F
:103E90000E94970E0FB6F894DEBF0FBECDBF6091A3
:103EA000020170E0CE01019614DF80915D090E944D
:103EB0004216809102010E944813E0910201F0E055
:103EC000E85CFB4FE081F0E00E94E245E8960FB627
:103ED000F894DEBF0FBECDBFDF91CF9108958F92D2
:103EE0009F92AF92BF92FF920F931F93CF93DF9356
:103EF000CDB7DEB7E8970FB6F894DEBF0FBECDBFE3
:103F0000182F00910201883039F158F48230A1F065
:103F10008430C1F08130D9F481EA97E00E942E0903
:103F200016C0803209F118F48031D1F010C080340D
:103F3000F9F0803809F10BC0013011F081E005C0C3
:103F40008FEF03C00230E1F382E080930201F12C95
:103F5000812C912C54012BC0033091F383E0F5CFD9
:103F6000043071F384E0F1CF053051F385E0EDCFFB
:103F7000063031F386E0E9CF073011F387E0E5CF73
:103F800080B18F3F49F1113091F061E070E080E045
:103F900090E00E94414720ED821627E09206A1049E
:103FA000B10448F43FEF831A930AA30AB30A80B11D
:103FB000181749F3E5CFF110F5CF8091A0048823BD
:103FC00009F46FC0809102018F3F11F40093020148
:103FD00024DFFF24F394E6CFF1104CC010910201CE
:103FE0001F3F09F1612F70E0CE01019672DE8DB79F
:103FF0009EB7C8970FB6F8949EBF0FBE8DBFADB7E2
:10400000BEB7119688E3FE01319601900D928A9514
:10401000E1F781EA97E00E94170A0FB6F894DEBF35
:104020000FBECDBF27C0E091331888E38E9FF0010B
:104030001124EE5CF54F2DB73EB7285331090FB66A
:10404000F8943EBF0FBE2DBFADB7BEB7119601901D
:104050000D928A95E1F781EA97E00E94170A0FB660
:10406000F894DEBF0FBECDBF80915D090E9442165D
:10407000109302010E94201362E370E080E090E060
:10408000E8960FB6F894DEBF0FBECDBFDF91CF919B
:104090001F910F91FF90BF90AF909F908F900C94C5
:1040A0004147E8960FB6F894DEBF0FBECDBFDF9153
:1040B000CF911F910F91FF90BF90AF909F908F90E5
:1040C0000895EF92FF920F931F93CF93DF9360E0D9
:1040D00088ED98E10E94EC4910919D09113108F09A
:1040E000B6C180919B0990919C09DC01ED91FC91F6
:1040F0000084F185E02D0995892B09F4A8C18091F0
:104100009B0990919C09DC01ED91FC910284F3855F
:10411000E02D0995EC018B7F893F09F498C18091CE
:10412000A5099091A609009709F0B5C0C093A00910
:1041300000919E09802F0E9470140E945C148823B5
:1041400061F0C7FD0AC00093A009C093A10981E0F6
:1041500090E09093A6098093A509C091A0098C2FA7
:104160000E947014813F910509F461C080F5803B85
:10417000910509F45FC068F48039910509F45AC0CB
:10418000803A910509F456C08038910509F0E3C0E2
:1041900051C0803D910509F44AC028F4803C910546
:1041A00009F445C0D8C0803E910509F443C0803F62
:1041B000910509F0D0C020E830E03093A4092093A5
:1041C000A30910929E0920EF2093B10939C0883FBE
:1041D0009105B9F040F4833F910549F158F1863FCC
:1041E000910579F0B8C08A3F910508F4B4C08D3FBD
:1041F000910538F09C012E5F31092230310508F01D
:10420000AAC09093AE098093AD091092AC091092A8
:10421000AF091092B00981E08093310A1092A6098B
:104220001092A5091092A4091092A309F1C022E0EE
:1042300030E002C023E030E03093A4092093A309CA
:104240002091A5093091A6094091A3095091A40994
:104250004150510924173507B8F09093AE09809367
:10426000AD09CF70CF5FC093AC098091A109809355
:10427000AF091092B0091092A6091092A5091092E8
:10428000A4091092A30928C02F5F3F4F3093A609BD
:104290002093A509DCC0C7FF47C09E0133272D3FEF
:1042A000310554F42A3F31056CF4273F3105C1F044
:1042B000283F3105C9F506C0A9014E5F51094230BA
:1042C000510590F53093AE092093AD091092AF09D6
:1042D0001092B0091092AC0981E08093310A98C025
:1042E0002091B109203FB9F59C012F5F3F4FFC01A0
:1042F000E958F64F47EF42AF80EF90E09093AE0958
:104300008093AD092093AF093093B0091092AC09A6
:1043100081E08093310A1092A6091092A5091092AB
:10432000A4091092A3096BC02091A009FC01E958CF
:10433000F64F203FD9F4C2AFE090A309F090A40952
:104340009701215031098217930708F45BC000914F
:10435000A009003F69F41092A6091092A5091092D5
:10436000A4091092A30910929E0971C0C1A7E4CFBD
:10437000802F0E947014EC019093AE098093AD09D8
:104380000E945C14882331F0802F8F708F5F8093A0
:10439000AC0902C01092AC098091A1098093AF09C9
:1043A00083E0E816F10419F48091A20901C080E0CD
:1043B0008093B0091092A6091092A5091092A40941
:1043C0001092A30981E08093310AC03BD105A1F08E
:1043D00050F4C039D10581F0C03AD10569F0C03838
:1043E000D10569F409C0C03DD10531F0C03ED10509
:1043F00019F0C03CD10519F400939E0909C0109230
:104400009E0906C001969093A6098093A5091FC036
:104410008091AD099091AE098039910521F4809188
:10442000B009882391F18091AD099091AE0980582F
:1044300091098136910580F58091AC09181761F1D9
:10444000112351F1612F87E799E00E94E01423DAEC
:1044500080914509882331F01092450980915D09CA
:104460000E94421690DA82E499E10E943F4C1816AD
:1044700019060CF470DB80B1809599F0DF91CF9133
:104480001F910F91FF90EF902ACD80E890E09093DC
:10449000AE098093AD09C7CF87E799E00E947013FA
:1044A000D1CFDF91CF911F910F91FF90EF900895A1
:1044B00080960C947331FC018281806882839F0115
:1044C000245F3F4F44855585668577858681978132
:1044D0000C94DF328F929F92AF92BF92EF92FF9235
:1044E0000F931F93CF93DF93EC01888185FF02C068
:1044F00000E057C088899989AA89BB8981159E4F98
:10450000AF41B105A8F7CE01D6DF082F882381F38C
:104510004C855D856E857F858E819F810E94F231FD
:104520004B015C018E819F8125E0B501A40180963D
:104530000E94B4317C01892BD9F280E092E0F7012E
:104540009C01119221503040E1F711E0EE81FF8192
:104550008281181780F49701B501A401410F511D04
:10456000611D711D808191810E946E37882309F43D
:10457000BFCF1F5FEBCF90E0A0E0B0E029E0880F55
:10458000991FAA1FBB1F2A95D1F7488959896A89A3
:104590007B89840F951FA61FB71F888B998BAA8BC9
:1045A000BB8B802FDF91CF911F910F91FF90EF90E8
:1045B000BF90AF909F908F900895CF93DF93EC01C1
:1045C000262F4C895D896E897F898E819F81809697
:1045D0000E94B431009761F02C813D812F70332708
:1045E00045E0220F331F4A95E1F7820F931F02C067
:1045F00080E090E0DF91CF910895CF93DF93DC01CD
:10460000FC0190E048E080E05EE220812032C1F0D1
:10461000983031F4EB01C80FD11D58838F5F40E112
:1046200020813FEB320F3A3130F41C963C911C97BD
:10463000342309F0205EEB01C80FD11D28838F5F62
:104640009F5F31969B3009F7FB01E80FF11D108247
:10465000DF91CF9108950F931F93FC010089118979
:1046600022893389FB010083118322833383FC0178
:1046700084859585A685B785FB0184839583A6836C
:10468000B7831F910F910895FC018081811114C09F
:1046900080E2DF01982F1D929A95E9F77783668370
:1046A000DB0115969C91903119F0903229F480E449
:1046B000808381E08283089580E008953F924F9245
:1046C0005F926F927F928F929F92AF92BF92CF92A2
:1046D000DF92EF92FF920F931F93CF93DF9300D05F
:1046E00000D0CDB7DEB79C838B834B017A01DC0110
:1046F0008C91882311F112969C9190FF1EC028C0C6
:10470000F501338034220115110509F097C03110ED
:1047100095C0892B8A2B8B2B09F479C0AB81BC8186
:104720001C964D915D916D917C911F9729813A81E5
:10473000C5010E94103287FF79C0AB81BC81119600
:104740008C911197826011968C938FEF9FEF20C10F
:1047500083FF17C0EB81FC81808D918DA28DB38D7D
:104760004089518962897389841B950BA60BB70B0D
:10477000A70160E070E0481759076A077B07D0F08F
:1047800018C085FF17C0AB81BC811696ED91FC91D6
:1047900017978681978145E0880F991F4A95E1F721
:1047A00050962D913C915197821B930B8E159F052E
:1047B00008F47C016701312CEB81FC813C96FA8383
:1047C000E983C114D10409F466C0EB81FC818089BE
:1047D0009189A289B3898C0111702081A680B7804C
:1047E000AC01BD0139E076956795579547953A95A7
:1047F000D1F725FF85CFD5015C964D905D906D90EA
:104800007C905F97440E551E661E771E2BC026FDBA
:1048100002C0EB81FC81848D958DA68DB78DEB81D7
:10482000FC8184879587A687B78708C0811106C059
:10483000EB81FC818081807771F57FCFAB81BC817A
:104840001C964D915D916D917C911F9716968D915F
:104850009C9117970E94F2312B013C01430C511C93
:10486000611C711CAB81BC811696ED91FC91179770
:104870000115110509F06AC0C114B2E0DB0608F4A5
:1048800065C043A154A165A176A1441655066606EC
:10489000770629F45BC0C7018C199D0979C0C11442
:1048A000B4E0DB0698F18601012F11270695AB8154
:1048B000BC818C9185FD07C08281831990E08017AF
:1048C000910708F48C015801BA2CAA24BB0C44159A
:1048D00055056605770580F4AB81BC811696ED9190
:1048E000FC9117979401B301A201808191810E94EC
:1048F0000B37811118C021CF400F511F611D711D51
:104900004416550666067706E0F1E6CF9401B3013A
:10491000A201808191810E94A936882309F40DCFDC
:10492000A12C82E0B82E8A0C9B1CEB81FC81808933
:104930009189A289B3898A0D9B1DA11DB11D808B10
:10494000918BA28BB38BCA18DB083BCF20E0B3015D
:10495000A201CF0180960E94B431009709F4EDCEF8
:1049600020E032E0201B310B56012C153D0508F4E8
:104970005901BC01600F711FA501C4010E94825141
:10498000D2CFCF0180960E9473318111A5CFD5CEB1
:104990000F900F900F900F90DF91CF911F910F917B
:1049A000FF90EF90DF90CF90BF90AF909F908F904F
:1049B0007F906F905F904F903F9008954F925F92DD
:1049C0006F927F928F929F92AF92BF92CF92DF921F
:1049D000EF92FF920F931F93CF93DF931F92CDB768
:1049E000DEB74C016B012A013901AA24AA94BA2C22
:1049F000E12CF12C87010F5F1F4F0415150554F5AD
:104A000041E050E0BE016F5F7F4FC40157DE5C01A3
:104A100081E0A816B104F1F469816D3019F48701C1
:104A20007801E8CFF601EE0DFF1D6083611471047B
:104A300019F46A30A9F708C0062E000C770BC301E1
:104A40000E949C51892B61F3F601E00FF11F108247
:104A5000C80107C0B7FE03C08FEF9FEF02C08701F8
:104A6000F3CF0F90DF91CF911F910F91FF90EF90B7
:104A7000DF90CF90BF90AF909F908F907F906F907E
:104A80005F904F900895FF920F931F93CF93DF9302
:104A90001F92CDB7DEB78C01FC0180899189A28974
:104AA000B3899C01AD0175E05695479537952795DB
:104AB0007A95D1F7F22FFF70FF2E11F0611115C01A
:104AC00041E050E0BE016F5F7F4FC801F7DD8130EC
:104AD00019F080E090E01AC0F80180899189A289DC
:104AE000B3894F96A11DB11D04C08096A11DB11DB3
:104AF000F801808B918BA28BB38BF8018681978113
:104B00008796F0E2FF9E800D911D11240F90DF919A
:104B1000CF911F910F91FF9008954F925F926F92E6
:104B20007F928F929F92AF92BF92CF92DF92EF923D
:104B3000FF920F931F93CF93DF93EC014A015B0128
:104B40004C845D846E847F84A881AA2309F491C07B
:104B5000488959896A897B89481559056A057B0501
:104B600009F48DC081149104A104B10429F41C86B8
:104B70001D861E861F8678C0A3FF0BC0088D198D69
:104B80002A8D3B8D081519052A053B0508F471C0CF
:104B900014C0A5FF12C0EE81FF818681978125E0B8
:104BA000880F991F2A95E1F7A0E0B0E088159905D4
:104BB000AA05BB0508F45DC057C0EE81FF81848162
:104BC00090E009968A019B010150110921093109E0
:104BD000082E04C036952795179507950A94D2F7A5
:104BE00075016401B1E0CB1AD108E108F10804C0F5
:104BF000F694E794D794C7948A95D2F7C016D10655
:104C0000E206F30620F0452B462B472B99F4A6FF2E
:104C100005C0848D958DA68DB78D04C08C8D9D8D1E
:104C2000AE8DBF8D8C879D87AE87BF878E01045F59
:104C30001F4F15C0C01AD10AE20AF30AF7CF4C85FC
:104C40005D856E857F8598018E819F810E941032DF
:104C500091E0C91AD108E108F108181654F4C114FA
:104C6000D104E104F10459F7888A998AAA8ABB8A97
:104C700006C04C865D866E867F8680E001C081E03E
:104C8000DF91CF911F910F91FF90EF90DF90CF9028
:104C9000BF90AF909F908F907F906F905F904F905C
:104CA0000895CF93DF93FC01208124FF21C0EC0104
:104CB0000E94680D61E0CE01E6DE009721F4898153
:104CC000882369F015C0FC012081222341F0253E94
:104CD00089F32E3279F3838583FDECCF09C088E018
:104CE00088838A8182608A83CE01DF91CF916CC7ED
:104CF00080E0DF91CF9108958F929F92AF92BF9203
:104D0000FF920F931F93CF93DF93EC01F22E80E27B
:104D1000DE011D928A95E9F7FB01868197819F83C9
:104D20008E835D834C83848C958CA68CB78C88860F
:104D30009986AA86BB86FA01EF70FF27DC01979659
:104D400035E0EE0FFF1F3A95E1F7AD014E0F5F1F03
:104D5000DA011B962C9123FF03C0188280E062C009
:104D60009C012E0F3F1FD901D2962C9127712883C9
:104D7000DA011B963C91387111F4286028830B836B
:104D80002F2D227319F02881217139F72F2D2F70C3
:104D90002A83DC0193964D915D916D917C9196975C
:104DA0004C8B5D8B6E8B7F8BE80FF91F43AD54AD41
:104DB00060E070E0BA0155274427DF01AF5BBF4FC9
:104DC0000D911C9120E030E0402B512B622B732B76
:104DD000F4FE0AC04115510561057105F1F00E940C
:104DE0007E3381111AC0B9CF4C8F5D8F6E8F7F8F4C
:104DF000ED5BFF4F80819181A281B381888F998F74
:104E0000AA8FBB8FF5FE0DC0488D598D6A8D7B8DA5
:104E1000CE0183DE811105C0A0CF8A8180688A839C
:104E2000F1CF81E0DF91CF911F910F91FF90BF9063
:104E3000AF909F908F9008958F929F92AF92BF9264
:104E4000DF92EF92FF920F931F93CF93DF93EB01CB
:104E5000FC012081211138C028812077A9F108891F
:104E600019892A893B890F71112722273327012BA2
:104E7000022B032B49F5142F7C0100E0D12C8888EC
:104E80009988AA88BB8860E0CE01FDDD0097E1F03B
:104E9000FC0120812223C1F02E3211F400E0EFCF7B
:104EA000253EE1F3338533FD06C0002379F047D476
:104EB000D8120AC00BC03F3089F726FFE0CF022F7F
:104EC0000F71FC01D584DBCF80E00DC0B501A401DA
:104ED00085E076956795579547958A95D1F7212F67
:104EE000BE01C70109DFDF91CF911F910F91FF90A4
:104EF000EF90DF90BF90AF909F908F900895BF92FA
:104F0000CF92DF92EF92FF920F931F93CF93DF9395
:104F1000FC018081882311F080E051C0DB019C916D
:104F20009077D1F327FDF8CF122F7A01EB016F01B3
:104F30004115510521F14150510960E070E085E0D3
:104F4000440F551F661F771F8A95D1F7CE01E5DD07
:104F5000882311F360E0CE0196DDFC01892BE1F29C
:104F600083858F3079F480818F71813059F4B584D5
:104F70000E2DB5E1EB16F10438F004E105C0CB01CC
:104F80000E94680D00E0B12C60E0CE017CDD00974E
:104F900009F4C2CFFC012081253E09F4BDCF2223B4
:104FA00009F4BACF2E3209F4B7CF002319F0C7D3D2
:104FB0008B11B2CF212FA701BE01C6019DDEDF916B
:104FC000CF911F910F91FF90EF90DF90CF90BF9006
:104FD0000895CF92DF92EF92FF920F931F93CF939A
:104FE000DF93CDB7DEB7A0970FB6F894DEBF0FBE44
:104FF000CDBFFC0119821A829081907711F480E074
:1050000064C08F01CF010E94680DF801C088D1886B
:10501000E288F38860E0C80136DD009731F4F801DA
:105020008181882309F449C0EACFFC012081222331
:1050300009F443C0253E49F32E3239F3838583FDBD
:10504000E4CF95E0F694E794D794C7949A95D1F776
:1050500021E0A601B801CE01019651DF882379F243
:10506000898184FF04C0CE010196B3DF06C08B8125
:1050700082608B83CE010196A7D5882309F4BFCF28
:10508000FFEFCF1ADF0AA60160E070E085E0440F71
:10509000551F661F771F8A95D1F7F801808991897E
:1050A000A289B38984179507A607B70709F4ADCF7E
:1050B000C80133DD8111A9CFA2CFF80180818076AC
:1050C00019F4C801EEDD01C081E0A0960FB6F89496
:1050D000DEBF0FBECDBFDF91CF911F910F91FF902B
:1050E000EF90DF90CF9008950F931F93FB01008105
:1050F000118122813381FC01008B118B228B338B38
:10510000FB014481558166817781FC014487558785
:10511000668777871F910F910895EF92FF920F9303
:105120001F93CF93DF93CDB7DEB729970FB6F894CF
:10513000DEBF0FBECDBF7C0119821A821B821C828A
:105140001D821E821F821886BE016F5F7F4F83DA29
:1051500041E050E0BE01675F7F4FC701AFDA0197C2
:1051600019F4098510E002C00FEF1FEF0F3F8FEF1A
:10517000180729F0BE016F5F7F4FC701B5DFC80177
:1051800029960FB6F894DEBF0FBECDBFDF91CF9149
:105190001F910F91FF90EF9008950F931F93CF935E
:1051A000DF93FC012081211102C081E041C0EC01AC
:1051B000828187FF37C061E0CF01FFD98C01009762
:1051C00029F489818160898380E032C0FC0180817B
:1051D000853EB9F3888183FF08C0888D998DAA8D9B
:1051E000BB8D848F958FA68FB78F8C8D9D8DAE8D47
:1051F000BF8DF801938F828FB58BA48BE09134180B
:10520000F0913518309759F0B8016A5E7F4FC801A8
:1052100048960995F801808D918D938B828B8A81B8
:105220008F778A838E819F8143D9882351F2BDCFA6
:10523000DF91CF911F910F910895CF93DF93EC01F0
:10524000ACDF1882DF91CF910895DF92EF92FF9249
:105250000F931F93CF93DF93CDB7DEB7E3970FB6CE
:10526000F894DEBF0FBECDBF7C018B015BAB4AABB8
:10527000D22E19821A82FC018081882311F080E0ED
:105280004EC0FB0180818077D1F3EAA9FBA9808120
:105290008F32C9F4EAA9FBA980818F3221F43196BB
:1052A000FBABEAABF7CFF80166817781811103C0D0
:1052B000C701EAD934C0CE010196E6D98823F9F2B4
:1052C0008E010F5F1F4FAE014E5C5F4FBE016F5DE1
:1052D0007F4F8AA99BA941D3882389F2EAA9FBA918
:1052E00080818823A9F021E0AE014F5D5F4FB801B6
:1052F000C7019BD5882309F4C2CF80E2F701DE0104
:10530000119601900D928A95E1F7C70196DFD8CFEB
:105310002D2DAE014F5D5F4FB801C70186D5E396D5
:105320000FB6F894DEBF0FBECDBFDF91CF911F91B6
:105330000F91FF90EF90DF900895CF93DF93CDB75B
:10534000DEB7A0970FB6F894DEBF0FBECDBFAB019E
:1053500019821A8222E0BC01CE01019676DF8823F1
:1053600019F0CE01019630D4A0960FB6F894DEBFA6
:105370000FBECDBFDF91CF9108952F923F924F92F4
:105380005F926F927F928F929F92AF92BF92CF92D5
:10539000DF92EF92FF920F931F93CF93DF93CDB7DE
:1053A000DEB72A970FB6F894DEBF0FBECDBF9E833F
:1053B0008D835B014A01DC018C9183FF10C0129642
:1053C0008C9181FF0CC082FF15C0ED81FE81408D64
:1053D000518D628D738DCF01A0DB81110BC0AD812A
:1053E000BE8111968C911197816011968C938FEFED
:1053F0009FEF8CC1A40160E070E0ED81FE818089A7
:105400009189A289B38980959095A095B0958417CC
:105410009507A607B70718F374011F01FCE02F0ECC
:10542000311CAD81BE8150960D911D912D913C9105
:105430005397E114F10409F41FC116968D919C91C4
:105440001797B901A801E9E07695679557954795B3
:10545000EA95D1F7FC01D380D4221170D1103AC063
:1054600001151105B9F51C964D915D916D917C91D9
:105470001F97411551056105710561F09101D0D764
:1054800087FDADCF811132C18D819E8114D88111EC
:105490002DC1A5CFED81FE81848D958DA68DB78D13
:1054A0000097A105B10581F4CF0105D8882309F43F
:1054B00096CFED81FE8184859585A685B785848FFD
:1054C000958FA68FB78F06C0ED81FE818487958763
:1054D000A687B787AD81BE811C964D915D916D9178
:1054E0007C911F9716968D919C9117977BD7AB0156
:1054F000BC014D0D511D611D711D0115110529F4D2
:10550000E114B2E0FB0608F048C080E092E0801BA6
:10551000910B67018E159F0508F46C0101151105AB
:10552000E9F4AD81BE8150964D905D906D907C9078
:10553000539749825A826B827C8258964D905D9037
:105540006D907C905B9789819A81AB81BC81841539
:105550009505A605B70510F025E001C021E0AD8155
:10556000BE8116968D919C9117978096FDD60097D7
:1055700009F435CFA601B501800F911F0E94825119
:105580000C0D1D1D0115124009F063C0ED81FE8157
:10559000868197818096A7D636C0AD81BE8116964A
:1055A000ED91FC911797E114B4E0FB0678F182814C
:1055B0008D1990E00F2D069510E08017910708F4E3
:1055C0008C016801DC2CCC24DD0C83A194A1A5A165
:1055D000B6A184179507A607B70750F0800F911F53
:1055E000A11DB11D481759076A077B0708F474C04D
:1055F000AD81BE811696ED91FC9117979501808142
:1056000091810E94EB37811124C0E9CE83A194A13E
:10561000A5A1B6A1481759076A077B0749F410A24C
:1056200044244A94542C320143A254A265A276A287
:10563000AD81BE811696ED91FC9117979501808101
:1056400091810E946E37882309F4C9CEC12C92E063
:10565000D92EED81FE8180899189A289B3898C0D33
:105660009D1DA11DB11D808B918BA28BB38BAC0CAA
:10567000BD1CEC18FD08D5CEAD81BE8158964D916C
:105680005D916D917C915B9712968C91129740176A
:1056900051076207730740F4FD01008F118F228FBD
:1056A000338F806882830BC0209134183091351875
:1056B000232B29F08068AD81BE8112968C93ED81F9
:1056C000FE81828183FD02C0C40120C08D819E8144
:1056D00064DD8111F9CF83CE10A244244A94542C66
:1056E000320143A254A265A276A282CFAD81BE81CF
:1056F0001C964D915D916D917C911F9716968D91A1
:105700009C9117976FD6AB01BC01FACE2A960FB6C3
:10571000F894DEBF0FBECDBFDF91CF911F910F91E7
:10572000FF90EF90DF90CF90BF90AF909F908F90C1
:105730007F906F905F904F903F902F900895FC0165
:105740009C01255F3F4F80E0982F90FB979597F93C
:105750008191890F2E173F07B9F70895CF93DF93F3
:10576000FC01DB0118964D915D916D917C911B9729
:10577000452B462B472B41F416966D917C9117973C
:10578000DF91CF910C94442380E2EF0119928A9526
:10579000E9F780E1808381E0828316968D919C9168
:1057A00017979783868318968D919D910D90BC9144
:1057B000A02D848F958FA68FB78F81E0DF91CF9139
:1057C00008955F926F927F928F929F92AF92BF9255
:1057D000CF92DF92EF92FF920F931F93CF93DF93BD
:1057E000CDB7DEB7A0970FB6F894DEBF0FBECDBF22
:1057F0008C017B016A0119821A82DC018C91882359
:10580000D1F04D305105B8F01AC0B801CE01019663
:10581000A5DF882381F0882483949DE0592E3701E9
:105820006C0C7D1CE1E06E1A7108D80113968C9106
:105830001397881570F4F7011082912C77C0D80166
:1058400013968C918111E1CFB701C80130D5982E04
:105850006DC0A82CB12C14964D915C9115974A19E6
:105860005B0960E070E085E0440F551F661F771FFD
:105870008A95D1F7CE01019650D9982E8823D9F276
:1058800060E0CE010196FFD8FC01892BA1F283854F
:105890008F3089F680818F7190E0A816B90659F68D
:1058A000B1E0AB1AB1085A9C90015B9C300D1124F9
:1058B000C701820F931F5F0160E0D501653028F4B6
:1058C00011964D915C9112970BC06B3028F4149691
:1058D0004D915C91159704C016964D915C91179768
:1058E0004115510591F02C153D05C8F42F5F3F4F30
:1058F0004F37510508F04FE3DC014D93CD016F5F49
:10590000B2E0AB0EB11C6D30C1F62C153D0538F47C
:10591000808186FF04C0D701A20FB31F1C92D30160
:105920001C92808186FD02C083947FCF892DA09632
:105930000FB6F894DEBF0FBECDBFDF91CF911F91A0
:105940000F91FF90EF90DF90CF90BF90AF909F901E
:105950008F907F906F905F900895AF92BF92CF929B
:10596000DF92EF92FF920F931F93CF93DF93DB01B0
:10597000FC019F012F5F3F4F8081803211F4F901BC
:10598000F8CF1496FC93EE9313979F0189010E1B99
:105990001F0B722F632FE90189919E01882331F13A
:1059A0008F3221F4CF01800F911F18C08C3511F474
:1059B00080E0FFC0982F977F9232D1F38A33C1F3F2
:1059C000982F9F7B9C33A1F392EC980F923080F339
:1059D00080528F35D8F2ECCF2F3241F4782F692FD7
:1059E000EC012991CE012032B9F7F8CFEA01788392
:1059F0006983E801CE0FDF1F8E010E1B1F0BEC1712
:105A0000FD0751F08A918E32B9F38032A9F30F3F2E
:105A1000110509F06CF602C000E010E012961C932C
:105A20000E931197ED012696CD01419620E2299320
:105A3000C817D907E1F7EF019E012E1B3F0B899193
:105A40008E32D1F38032C1F381E02115310509F0A6
:105A500080E0A80141505109EF01C00FD11F4F3F15
:105A60009FEF590741F470E097E0A92E60E0B12C58
:105A7000C8E0EC2E10C09A919E32A9F34150510912
:105A8000EECF6F01C20ED31EE6019881903239F439
:105A900080E02F5F3F4F201731079CF358C09E32A4
:105AA00021F424173507A1F704C09232E1F09C37A6
:105AB000D1F0D6EDFD2EF90ED5E0DF1510F09D32B8
:105AC00091F4C6ECFC2EF90EC5E0CF1560F4D5EAD2
:105AD000FD2EF90ED2E0DF1530F4CFEDFC2EF90EDD
